:020000040000FA
:0608000081EF30F0120050
:020806001200DE
:060808004FEF17F0120093
:02080E00C250D6
:08081000020B01E0010E1200D1
:0608180048EF25F012007C
:02081E000700D1
:10082000E76100007302000006000000A161000003
:10083000FF01000001000000E361000079020000F8
:1008400004000000E1610000F10700000200000068
:10085000D3610000EF0100000E000000BC61000049
:100860004602000017000000B06100005D020000B9
:040870000C00000078
:0C087400D9CFE6FFE1CFD9FF040EE1264A
:10088000010EE66EE66A010EE66E580EE66E010E89
:10089000E66EE66ACDEC1CF0F56E060EE15EF550F4
:1008A000E3D8E9D8F3CF2BF0F4CF2CF02B502C1059
:1008B00003E1F36AF46A14D0410E0101585D05E1C9
:1008C000D3D8010EF36EF46A0BD0540E585D04E1D8
:1008D000020EF36EF46A04D0C7D8F36AF46A00D04B
:1008E000D9CFE1FFE552E7CFD9FF1200D9CFE6FF1C
:1008F000E1CFD9FF040EE126DE6ADD6ADECF2BF000
:10090000DDCF2CF0D8902C5004E6400E2B5C000E6E
:100910002C582FE2FD0EDBCF2BF0FE0EDBCF2CF0A0
:10092000DE502B24F66EDD502C20F76E0800F550BB
:100930000D080FE0FD0EDBCF2DF0FE0EDBCF2EF00D
:10094000DE502D24F66EDD502E20F76E0800F55097
:100950000BE1D9CFE9FFDACFEAFF020EEECFDBFFE2
:10096000030EEDCFDBFF05D0DF2A010E01E3DB2A0A
:10097000C5D7020EDBCFE6FF030EDBCFE6FFFD0E91
:10098000DBCFE6FFFE0EDBCFE6FF010EE66EE66A8A
:10099000CDEC1CF0F56E060EE15EF5506BDF00D07D
:1009A000D9CFE1FFE552E7CFD9FF1200D9CFE6FF5B
:1009B000E1CFD9FF040EE126DE6ADD6ADECF2BF03F
:1009C000DDCF2CF0D8902C5004E6400E2B5C000EAE
:1009D0002C582DE2FD0EDBCF2BF0FE0EDBCF2CF0E2
:1009E000DE502B24E96EDD502C20EA6EEF500D080E
:1009F0000EE0FD0EDBCF2DF0FE0EDBCF2EF0DE5035
:100A00002D24E96EDD502E20EA6EEF500BE1D9CF98
:100A1000E9FFDACFEAFF020EEECFDBFF030EEDCFE8
:100A2000DBFF05D0DF2A010E01E3DB2AC7D7020E68
:100A3000DBCFE6FF030EDBCFE6FFFD0EDBCFE6FFED
:100A4000FE0EDBCFE6FF010EE66EE66A90EC1CF0D0
:100A5000F56E060EE15EF5500DDF00D0D9CFE1FF57
:100A6000E552E7CFD9FF120002015D6B5E6B020118
:100A70002F6B306B1200D9CFE6FFE1CFD9FF020E0A
:100A8000E126DE6ADD6ADECF2BF0DDCF2CF0D890D8
:100A90002C5004E6200E2B5C4E0E2C580DE2020169
:100AA0002F51301104E0010EF36EF46A08D0DF2AF2
:100AB000010E01E3DB2AE7D7F36AF46A00D0D9CF4D
:100AC000E1FFE552E7CFD9FF1200D9CFE6FFE1CF32
:100AD000D9FF020EE1260201616B626B030EE66E26
:100AE000E66AFD0EE66E570EE66E010EE66EE66AEB
:100AF000CDEC1CF0F56E060EE15EF550BBDEF3CFDB
:100B0000DEFFF4CFDDFFB6DE00D0D9CFE1FFE55246
:100B1000E7CFD9FF1200D9DFF80EE66E570EE66E6A
:100B2000E5DEE552E552F3CF2BF0F4CF2CF02B505D
:100B30002C1001E15DD0F30EE66E570EE66ED6DEA8
:100B4000E552E552F3CF2BF0F4CF2CF02B502C10C4
:100B500001E14ED0EE0EE66E570EE66EC7DEE552B0
:100B6000E552F3CF2BF0F4CF2CF02B502C1001E1F9
:100B70003FD0E90EE66E570EE66EB8DEE552E5525E
:100B8000F3CF2BF0F4CF2CF02B502C1001E130D010
:100B9000E10EE66E570EE66EA9DEE552E552F3CFA2
:100BA0002BF0F4CF2CF02B502C1001E121D0D90EDA
:100BB000E66E570EE66E9ADEE552E552F3CF2BF065
:100BC000F4CF2CF02B502C1001E112D0D20EE66E97
:100BD000570EE66E8BDEE552E552F3CF2BF0F4CFE5
:100BE0002CF02B502C1001E103D045DF3DDF00D06D
:100BF0001200CF0EE66E570EE66E78DEE552E55235
:100C0000F3CF2BF0F4CF2CF02B502C1001E103D0BC
:100C100032DF2ADF00D01200D9CFE6FFE1CFD9FFC3
:100C2000E652C10E2B6E570E2C6E2D6A2BC0E6FFBE
:100C30002CC0E6FF2DC0E6FFB2EC2DF0E552E552E8
:100C4000E552DF6ADFCF2BF02C6A2BBE2C68020145
:100C50005D512B5C5E512C581FE2DFCFE9FFEA6A41
:100C6000E9BEEA68580EE926010EEA22EF50E66E68
:100C7000E66ABD0E2B6E570E2C6E2D6A2BC0E6FF5A
:100C80002CC0E6FF2DC0E6FFB2EC2DF0F56E050E90
:100C9000E15EF550DF2AD6D7010E2B6E580E2C6E72
:100CA0002D6A2BC0E6FF2CC0E6FF2DC0E6FFB2EC9C
:100CB0002DF0E552E552E552E552E552E7CFD9FF76
:100CC000120001015A51780825E3550E5A5D22E3BE
:100CD000500E5C5D1FE35C512B6E2C6A2C3404E2D9
:100CE0002B508608000E2C5415E3B50E2B6E570EB4
:100CF0002C6E2D6A2BC0E6FF2CC0E6FF2DC0E6FF50
:100D0000B2EC2DF0E552E552E552020EF36EF46AB4
:100D100004D003D0F36AF46A00D01200D9CFE6FF02
:100D2000E1CFD9FF060EE126DE6ADD6AFD0EDBCFDC
:100D30002BF0FE0EDBCF2CF0DE502B24E96EDD50C5
:100D40002C20EA6EEF5005E0DF2A010E01E3DB2ADA
:100D5000EDD7640E2D6E2DC023F0FC0EDBCF1EF000
:100D6000AFEC30F01E502B6E2C6A040E2BC0DBFF54
:100D7000050E2CC0DBFF2B502C101EE0300EE76E52
:100D8000040EDBCF2DF0050EDBCF2EF0E7502D2625
:100D9000000E2E22DFCF2BF0DF2A010EDBCF2CF04E
:100DA00001E3DB2AFD0EDB502B24E96EFE0EDB5047
:100DB0002C20EA6E2DC0EFFFFC0EDB502D6E2E6A4C
:100DC000640E1D6E1E6A040EDBCF22F0050EDBCF13
:100DD00023F0ADEC1FF01B502D5C2B6E1C502E58D9
:100DE0002C6E0A0E226E236A2BC01DF02CC01EF042
:100DF00087EC1FF01DC02BF01EC02CF0020E2BC084
:100E0000DBFF030E2CC0DBFF2B502C1008E1D95068
:100E1000040FE96EDACFEAFFEE50ED101EE0300E5F
:100E2000E76E020EDBCF2DF0030EDBCF2EF0E75086
:100E30002D26000E2E22DFCF2BF0DF2A010EDBCF76
:100E40002CF001E3DB2AFD0EDB502B24E96EFE0EB5
:100E5000DB502C20EA6E2DC0EFFF0A0E2D6E2DC048
:100E600023F0FC0EDBCF1EF0AFEC30F01A50300F49
:100E7000E66EDFCF2BF0DF2A010EDBCF2CF001E393
:100E8000DB2AFD0EDB502B24E96EFE0EDB502C20FE
:100E9000EA6EE552E750EF6EDFCF2BF0DF2A010E4E
:100EA000DBCF2CF001E3DB2AFD0EDB502B24E96EB7
:100EB000FE0EDB502C20EA6E200EEF6EFD0EDBCF17
:100EC0002BF0FE0EDBCF2CF0DE502B24E96EDD5034
:100ED0002C20EA6EEF6AD9CFE1FFE552E7CFD9FFC8
:100EE0001200D9CFE6FFE1CFD9FF9F0E1D6E1E6A1B
:100EF000FD0EDBCF22F0FE0EDBCF23F045EC30F011
:100F00001DC098F1010198512D6E2E6A2DC01DF063
:100F10002EC01EF0FD0EDBCF22F0FE0EDBCF23F045
:100F2000DAEC1FF01BC02BF01CC02CF09F0ED880F9
:100F30002B56000E2C562BC099F1FD0EDBCF9AF1EB
:100F4000960E1D6E1E6AFB0EDBCF22F0FC0EDBCF71
:100F500023F045EC30F01DC09BF101019B512D6E3B
:100F60002E6A2DC01DF02EC01EF0FB0EDBCF22F02E
:100F7000FC0EDBCF23F0DAEC1FF01BC02BF01CC003
:100F80002CF0960ED8802B56000E2C562BC09CF1C0
:100F9000FB0EDBCF9DF1FD0EDBCF1DF0FE0EDBCF98
:100FA0001EF0FB0EDBCF22F0FC0EDBCF23F0DAECE1
:100FB0001FF01BC09EF11CC09FF10101A06BA16B33
:100FC000E552E7CFD9FF1200D9CFE6FFE1CFD9FF35
:100FD000180EE126560EDF6EDE52570EDD6E200E25
:100FE000F36E020EF3CFDBFF030EDB6AD950040F62
:100FF000E96EDACFEAFFEE6AEE6AEE6AEE6AEE6A50
:10100000EE6AEE6AEE6AEE6AEE6AEE6AEE6AEE6A20
:10101000EE6AEE6AEE6AFE0EDB5001019803F328D9
:10102000E66ED9CFE6FFDACFE6FF78DEE552E5528D
:10103000E552FD0EDB5001019B03F328E66ED9CF8C
:10104000E6FFDACFE6FF6ADEE552E552E552FE0E34
:10105000DB2801019803140EF3CFDBFF9A05F36E32
:10106000FE0EDB50F35C08E1140EDBCFE7FF995175
:10107000E726140EE7CFDBFF140EDBCFE6FFD9CF58
:10108000E6FFDACFE6FF4ADEE552E552E552FD0E15
:10109000DB2801019B03140EF3CFDBFF9D05F36EEC
:1010A000FD0EDB50F35C08E1140EDBCFE7FF9C5133
:1010B000E726140EE7CFDBFF140EDBCFE6FFD9CF18
:1010C000E6FFDACFE6FF2ADEE552E552E552D9CF58
:1010D000E6FFDACFE6FF6ADCE552E552F3CF2BF00C
:1010E000F4CF2CF02B502C1003E1F36AF46A6AD091
:1010F000B20EE66E570EE66E76EC04F0E552E5525F
:10110000F3CF2BF0F4CF2CF02B502C1003E1F36A2B
:10111000F46A58D0170EDB6A150EDB6A160EDB6A0E
:10112000150EDBCF2BF0160EDBCF2CF0700E2B5CE8
:10113000170E2C583EE20201050E5D5D000E5E5951
:1011400032E3BFDD170EF3CFDBFFFC0EDB502AE0EE
:10115000FD0EDBCFE6FFE66AFE0EDBCFE6FFE66ABA
:10116000A80E2B6E570E2C6E2D6A2BC0E6FF2CC0DE
:10117000E6FF2DC0E6FFB2EC2DF0F56E070EE15E46
:10118000F5504ADD010E2B6E580E2C6E2D6A2BC0C9
:10119000E6FF2CC0E6FF2DC0E6FFB2EC2DF0E552D5
:1011A000E552E55206D0150EDB2A160E01E3DB2AC6
:1011B000B7D7170EDB502B6E2C6A2BC0F3FF2CC059
:1011C000F4FF00D0D9CFE1FFE552E7CFD9FF1200FD
:1011D0000101EEB134D001019E51A05D9F51A15992
:1011E00004E3010EF36EF46A2DD0010EE66E9D51FC
:1011F0002B6E2C6AA0C11DF0A1C11EF02BC022F0E5
:101200002CC023F045EC30F01950E66E01019D51E1
:101210002D6E2E6AA0C11DF0A1C11EF02DC022F0BE
:101220002EC023F045EC30F01D50E66ECDDEE552C9
:10123000E552E5520101A02B000EA123C9D7F36AA4
:10124000F46A00D01200D9CFE6FFE1CFD9FF0A0E31
:10125000E126530EDF6EDE52560EDD6E200EF36E6B
:10126000020EF3CFDBFF300EF36E030EF3CFDBFF86
:10127000200EF36E040EF3CFDBFF050EDB6AD950B0
:10128000060FE96EDACFEAFFEE6AEE6AEE6AEE6A00
:10129000FE0EDBCFE6FFD9CFE6FFDACFE6FF3EDD7D
:1012A000E552E552E552D9CFE6FFDACFE6FFD6ECBC
:1012B00004F0E552E552F3CF2BF0F4CF2CF02B5095
:1012C0002C1001E102D03BEC05F0D9CFE1FFE55253
:1012D000E7CFD9FF1200D9CFE6FFE1CFD9FF0A0E41
:1012E000E1260101FB51050A01E1BFD1010A01E13B
:1012F00071D1070A01E1B9D0020A74E0010A01E0E4
:10130000B4D10101AA6BAB6B8BEC05F01A0EE66E43
:10131000E66AE66EE66AE5DDE552E552E552E5523B
:10132000DE6ADD6ADECF2BF0DDCF2CF0070E2B5C02
:10133000000E2C581BE2DECFE9FFDDCFEAFFA20E44
:10134000E926010EEA22EF6AFA0EDBCF2BF0FB0E44
:10135000DBCF2CF0DE502B24E96EDD502C20EA6E22
:10136000EF6ADF2A010E01E3DB2ADCD70101AAC103
:10137000F6FFABC1F7FFAA2B000EAB23D890F636D1
:10138000F7367C0EF6265E0EF7220900F5CF2BF01D
:101390000800F5CF2CF02BC0DEFF2CC0DDFF2B505A
:1013A00002E1C00E2C1807E10101050EFB6F010ED2
:1013B000F36EF46A5ED1FE0EDB502B6E2C6A2B505E
:1013C000800E2C122BC0DEFF2CC0DDFF2B502C100A
:1013D00001E001D0CBD7AC6BAD6B0101010EFB6F0F
:1013E000030EFC6F0101AC51AD110BE1AC2B000EF3
:1013F000AD23E66A190EE66EE66EE6DDE552E552CD
:10140000E552040EDB6A050EDB6A040EDBCF2BF01F
:10141000050EDBCF2CF0D8902C5004E6280E2B5C68
:10142000230E2C5812E2040EDBCF1DF0050EDBCF8D
:101430001EF0060E1DC0DBFF070E1EC0DBFF040EF4
:10144000DB2A050E01E3DB2AE0D70101AC2B000EFD
:10145000AD23030EAC1901E1AD5104E1FCC1FBF178
:10146000AC6BAD6BF36AF46A04D10101EEB1ABD0A1
:101470000101AAC1F6FFABC1F7FFAA2B000EAB23F7
:10148000D890F636F7367C0EF6265E0EF722090067
:10149000F5CF2BF00800F5CF2CF02BC0DEFF2CC0D1
:1014A000DDFF2B5002E1C00E2C1804E10101040EF7
:1014B000FB6F89D0DECF2BF0DDCF2CF0000E2B168A
:1014C000800E2C162B5002E1800E2C1812E1FE0E1D
:1014D000DB502D6E2E6A2D50800E2E122D50DF18EF
:1014E00003E12E50DE52DD1804E00101040EFB6F13
:1014F0006AD0DECF2BF0DDCF2CF0000E2B16400E85
:101500002C162B5002E1400E2C181CE1D9CFE9FF1C
:10151000DACFEAFFEE5002E1400EED1803E1F9ECFC
:1015200005F008D0DECF2BF0DDCF2CF02B50E66E8F
:101530008ADEE5520101010EFB6F030EFC6FF36AB8
:10154000F46A97D0E66ADECF2DF0DDCF2EF0050EDF
:10155000D8902E322D32E804FBE11F0E2D14E66EDA
:10156000DECF2FF0DDCF30F01F0E2F14E66E2CDD16
:10157000E552E552E552F3CF2BF0F4CF2CF02B508F
:101580002C1020E0DECF2BF0DDCF2CF02CC02BF088
:101590002C6AD8902B32D8902B320F0E2B16000EBF
:1015A0002C16080E2BC0DBFF090E2CC0DBFF080E2B
:1015B000DBCFE9FF090EDBCFEAFFA20EE926010E21
:1015C000EA22EF2A52D7030E0101FB5D03E1F36A21
:1015D000F46A4FD00101AA6BAB6B070EABAF02D020
:1015E000D89003D0AA5D000EAB593CE2A20EAA250A
:1015F000E96E010EAB21EA6EEF5030E0A20EAA2593
:10160000E96E010EAB21EA6EEF50E66EFC0EDBCF09
:10161000E9FFFD0EDBCFEAFF010ED890E936EA368E
:10162000E806FBE1EF0EE926010EEA220101AA51CC
:10163000EE24E76EAB51EE20EA6EE7CFE9FFEF5004
:10164000E76EFA0EDBCFE9FFFB0EDBCFEAFFE750D8
:10165000E926000EEA22E552E750EF6EAA2B000EB3
:10166000AB23BBD70101050EFB6F010EF36EF46ACD
:0E16700000D0D9CFE1FFE552E7CFD9FF12003D
:02167E007BEC03
:1016800010F0FB0EDBCFF3FFDB06F35000090AE09E
:10169000C9EC10F0FA0E34EC11F0F3E12C1CF1E17E
:1016A000010E01D0000EAAEF10F07BEC10F03B0E03
:1016B000E12402E3E168E652E16E010EDB6A020E0C
:1016C000DB6AF90EDBCFF6FFFA0EDBCFF7FFFB0E7E
:1016D000DBCFF8FF0800F550DF6EDF5002E1D0EFFE
:1016E0000FF0250EDF5C02E0C3EF0FF0030EDB6AA4
:1016F000040EDB6A050EDB6A060EDB6A070EDB6A88
:10170000E3EC0FF02D0EDF5C0CE02B0EDF5C09E04C
:10171000200EDF5C06E0230EDF5C03E0300EDF5CB2
:101720001AE1DF50300A14E0130A0FE0030A0AE05E
:101730000B0A05E0060AE4E1030EDB80E1D7030EA5
:10174000DB82DED7030EDB84DBD7030EDB86D8D744
:10175000030EDB88D5D72A0EDF5C1BE1DFEC0FF030
:101760002DEC10F010E0030EDB801D681E68130ED8
:10177000DBCF22F0140EDBCF23F0ADEC1FF0040E14
:101780001BC0DBFF03D0130E16EC10F0E3EC0FF0E0
:101790000BD0090EDB6A84EC10F003E0F8EC10F0DB
:1017A000FAD7090E16EC10F0030EDBB0DB982E0E04
:1017B000DF5C1BE1E3EC0FF02A0EDF5C0BE1DFECFA
:1017C0000FF02DEC10F003E1130E68EC10F0E3ECD9
:1017D0000FF00BD0090EDB6A84EC10F003E0F8EC9C
:1017E00010F0FAD7090E68EC10F0680EDF5C07E124
:1017F000E3EC0FF0680EDF5C1DE1030E18D0740EF1
:10180000DF5C17E07A0EDF5C14E0480EDF5C06E078
:10181000540EDF5C03E05A0EDF5C02E1020E07D0DB
:101820006C0EDF5C03E06A0EDF5C04E1010EBBECD2
:1018300010F0C9DBDF506E0A01E181D31E0A01E11D
:1018400092D1200A01E18FD13F0A01E149D11A0A60
:1018500001E146D10D0A01E143D1200A01E140D165
:101860003A0A01E13DD1200A01E13AD1260A01E11B
:1018700035D10D0A01E132D11A0A01E1D9D0200A8D
:101880004AE0300A1FE0460A0EE0250A01E085D34F
:10189000D950F90FE96EFF0EDA20EA6E010EEE5E06
:1018A000000EEE5AEE5AC9EC10F0250EE66E95DBEE
:1018B00003E12C1C01E16BD3C5EC10F001E26DD308
:1018C000DB2A6BD3080EDB6A040EDB50010806E24C
:1018D000040EDB048DEC10F0DB508BDB080EDB50CC
:1018E00009E0030EDB50010B05E172DB01E04FD391
:1018F000080EDB6A64DBEFCFDFFF3DEC11F003E1A4
:101900002C1C01E144D3C5EC10F001E3DB2A60DBC1
:1019100001E143D33CD3070EDB5002080FE109EC91
:1019200011F0030ED0EC10F00E0EEECFDBFF0F0E19
:10193000EECFDBFF100EEECFDBFF20D0F70EDBCFBC
:101940002EF0F80EDBCF2FF0020E2E5E000E2F5A77
:10195000F70E2EC0DBFFF80E2FC0DBFF2EC0E9FF15
:101960002FC0EAFFC0EC10F02D6A0E0E2BC0DBFF7B
:101970000F0E2CC0DBFF100E2DC0DBFF0E0EDBCFD9
:10198000E6FF0F0EDBCFE6FF100EDBCFE6FF80ECAD
:101990002AF0E552E552E552130E1CC0DBFF140E8F
:1019A0001DC0DBFF060EDB5005E0130E04EC11F04A
:1019B00001E26ADB28EC11F002E2130E37DBEBECFC
:1019C00010F006E0040E04EC11F002E2050E2EDB2E
:1019D000030EDBB005D0FCDA01E0D9D2080EDB6AD9
:1019E000090EDB6A0E0EDBCFF6FF0F0EDBCFF7FF23
:1019F000100EDBCFF8FF0800F550DF6EDF5014E06B
:101A00002EEC11F011E23DEC11F003E12C1C01E190
:101A1000BED2BBDB01E3DB2A090EDB2AD9500E0F55
:101A2000E96E000ECBDBE7D7D3DA01E1B6D2AFD255
:101A3000C6DA110EEECFDBFF120EEDCFDBFF110E7B
:101A4000DBCFE6FF120EDBCFE6FF72EC2AF0E552A9
:101A5000E552130EF3CFDBFF140EF4CFDBFF060EBF
:101A6000DB5004E0130ED0DB01E20EDB28EC11F0BA
:101A700002E2130EDBDAAFDB05E0040EC5DB02E2A7
:101A8000050ED4DA030EDBB005D0A2DA01E07FD276
:101A9000080EDB6A090EDB6A110EDBCFE9FF120EBE
:101AA000DBCFEAFFEFCFDFFFDF5014E0D7DB12E23E
:101AB000E4DB03E12C1C01E16AD267DB01E3DB2AF2
:101AC000090EDB2A110EDB2ADBCFE9FF120EE8E359
:101AD000DB2AE6D77DDA01E160D259D2030EDB8E34
:101AE000070EDB0410E195DB040E5ADB0A0EEECF85
:101AF000DBFF0B0EEECFDBFF0C0EEECFDBFF0D0E90
:101B0000EECFDBFF6CD0070EDB5003082CE1030E99
:101B1000DBAE0DD0B2DA020E76DAEFCF2BF02C6A04
:101B20002D6A2E6A2BAE39D02C682D6835D0F70E71
:101B3000DBCF2CF0F80EDBCF2DF0020E2C5E000E6A
:101B40002D5AF70E2CC0DBFFF80E2DC0DBFF2CC08A
:101B5000E9FF2DC0EAFFEFCF2BF00A0E2BC0DBFF11
:101B60000B0EDB6A38D0070EDB50020809E1030ECA
:101B7000DBAE04D059DB2DAE10D00ED055DB0DD02E
:101B8000030EDBAE12D079DA020E3DDAF9DA2D6AF5
:101B90002E6A2CAE02D02D682E68E2DA0C0E2DC013
:101BA000DBFF0D0E2EC0DBFF1AD0F70EDBCF2DF0C2
:101BB000F80EDBCF2EF0020E2D5E000E2E5AF70E21
:101BC0002DC0DBFFF80E2EC0DBFF2DC0E9FF2EC0BD
:101BD000EAFFD6DAC5DA0C0EDB6A0D0EDB6A060EFA
:101BE000DB5005E1010EF36E050EF3CFDBFF150EA2
:101BF000DB6A160EDB6AD950370F2B6E000EDA2027
:101C00002C6E390E2BC0DBFF3A0E2CC0DBFF380EDA
:101C1000DB6A080EDB6A0A0EAEDADF50780A12E0E1
:101C2000200A10E0280A0CE0200A0AE03F0A06E039
:101C30000D0A02E0200A08E1020E05D0080E03D0CA
:101C4000080EDF26100E97DA030EDBBE02D0DB9201
:101C5000DB94DB50800B26E08ADA030EEB50000A9F
:101C6000E8AE02D0D89008D0000EEE5C000EEE5820
:101C7000000EEE58000EEE5815E211DA20682168C9
:101C8000226823683EEC2EF00A0E17C0DBFF0B0E15
:101C900018C0DBFF0C0E19C0DBFF0D0E1AC0DBFFF6
:101CA0002D0E08D0030EDBA202D02B0E03D0DBA436
:101CB00008D0200EF36E170EF3CFDBFF150EDB2AD4
:101CC00002D0170EDB6A050EDB5003E1B5D901E146
:101CD00089D0900E2B6E610E2C6E000E2D6E070EAD
:101CE000DBCF2EF02F6A306A316A2EC020F02FC071
:101CF00021F030C022F031C023F0D1D902EC30F015
:101D00002B501724F36E2C501820F46E2D501920F0
:101D1000F86EF4CFF7FFF3CFF6FF0800090EF5CF0A
:101D2000DBFF580EDF5C0FE1610EF36E090E79D90F
:101D30000AE3200E2B6E090EDBCFE7FF2B50E75E88
:101D4000090EE7CFDBFF070EDBCF2BF02C6A2D6AE5
:101D50002E6A0DDA2BC020F02CC021F02DC022F00D
:101D60002EC023F0EECF1BF0EECF1CF0EECF1DF017
:101D7000EFCF1EF002EC30F01EC0EDFF1DC0EDFFF6
:101D80001CC0EDFF1BC0EFFF390EDBCFE9FFDB0608
:101D90003A0EDBCFEAFF01E2DB06090EDBCFEFFFF5
:101DA000150EDB2A49D995E1030EDBA61DD06F0E77
:101DB000DF5C06E1BFD918E3150EDB2859DA14D031
:101DC000780EDF5C09E0580EDF5C06E0620EDF5C37
:101DD00003E0420EDF5C08E1020EF36E160EF3CF55
:101DE000DBFF02D0150EDB6A030EDB50100B0EE09A
:101DF000040EDBCF2BF0050EDB50D8802B5406E20F
:101E0000060EDB5003E1040EDB5032DA93D90AE20E
:101E1000050EDBCFE7FF150EDB50E75E050EE7CFC3
:101E2000DBFF02D0050EDB6A040EDBCF2BF0160EB3
:101E300043D9D8802B5414E2160EDBCFE6FF150EE3
:101E4000DBCFE6FF040EDBCFE6FF050EDB50E552ED
:101E5000E75CE552D880E754E552D880E7545DD975
:101E6000030EDB50010B0BE1080EDB5008E0B0D88D
:101E700001E08DD0080EDB50BCD8080EDB6A170ECF
:101E8000DB5007E086D9170EEFD903E12C1C01E1E6
:101E90007ED0160EDB5016E07CD9300EE66E9DD853
:101EA00002E12C1C74E075D9DFCFE6FFFCEC2DF0CD
:101EB000E552E552E552F4CF2CF00001F31C02E1AB
:101EC0002C1C65E0050EDBCF2BF0160EDB50D88006
:101ED0002B5409E2050EDBCFE7FF160EDB50E75E61
:101EE000050EE7CFDBFF300EE66E050EC9D94FE1D8
:101EF000390EDB2ADBCFE9FF3A0E01E3DB2ADBCF29
:101F0000EAFF090EEFCFDBFFDB500EE042D9090EEE
:101F1000ABD902E12C1C3BE0390EDB2ADBCFE9FF19
:101F20003A0EEDE3DB2AEBD753D831E1160EDBCFC7
:101F3000E6FF080EC1D8E552E7245BD82ED0070E85
:101F4000DB50030A1CE0010A14E0030A07E079D918
:101F5000DBCFEEFF020EDBCFEDFF1FD0F3D8306AF0
:101F60002EAE02D02F6830682AD8BAD830C0EEFF23
:101F700014D0E8D82EBE2F6822D8B2D80ED061D99E
:101F8000DBCFEFFF0AD079D905E12C1C03E1F36820
:101F9000F46810D0FAD801E3DB2A77D96AEF0BF0A6
:101FA000010EDBCF2BF0020EDBCF2CF02BC0F3FFAA
:101FB0002CC0F4FFD9CFE1FFDACFE2FFCBD029D993
:101FC000020ED0EF10F061D90800F550DF6E12005C
:101FD000200EE66E080E40EF11F0FCEC2DF0E552FD
:101FE000E552E552F3CF2BF0F4CF2CF00001F31CB7
:101FF00012002B6E2C6AD950010F4DD92B50EE26B2
:102000002C50ED2212002F5E000E305AF70E2FC01A
:10201000DBFFF80E30C0DBFF2FC0E9FF30C0EAFF66
:102020001200DBCFF4FFF350F45C1200DB50E76EDC
:10203000040EE7CFDBFF12000A0EDBCF2BF00B0EF6
:10204000DBCF2CF00C0EDBCF2DF00D0EDBCF2EF006
:102050002B502C102D102E101200130EEECFDBFF84
:10206000140EEDCFDBFF130EDBCF2BF0140EDBCF06
:102070002CF00001800E2C141200F70EDBCF2FF095
:10208000F80EDBCF30F01200050EDB50E66ED950B3
:10209000130F01D9E552E750EE6EED6A12000A0EF9
:1020A000DBCF1BF00B0EDBCF1CF00C0EDBCF1DF0DB
:1020B0000D0EDBCF1EF01200DBCFE6FF150EDBCFDF
:1020C000E6FF050EDB50E552E724E552E724120057
:1020D000DB50CED8010EF36E060EF3CFDBFF1200FD
:1020E000EE50EFCFEAFFE96E2DC0EEFF2EC0EEFFFF
:1020F0002FC0EEFF1200D9CFE6FFDACFE6FFE1CF27
:10210000D9FFE2CFDAFF1200DFCFE6FFE66A6FEC1D
:1021100030F0E552E552F3501200E76E080EE7CFBB
:10212000DBFF1200EECF2BF0EECF2CF0EFCF2DF037
:102130002E6A1200050EDBCF2BF0150EDB50D88077
:102140002B541200010EDBCF2DF0020EDBCF2EF050
:102150002F6A1200E552E5CFDAFFE7CFD9FF120070
:102160000A0E2BC0DBFF0B0E2CC0DBFF1200D95078
:102170000A0F4BEF11F0F36E070EF3CFDBFF1200E7
:10218000EECF2BF0EFCF2CF01200010EDB2A020E67
:102190001200FC0EDBCFE6FFFD0EDBCFE6FF1200E8
:1021A0002B5E000E2C5AF70E2BC0DBFFF80E2CC056
:1021B000DBFF2BC0E9FF2CC0EAFF1200DA20EA6E39
:1021C000EF2AEECFF6FF000EEF22EECFF7FFEF2261
:1021D000EECFF8FF1200040EDBCFE6FF130EDB504C
:1021E000E552E75C9ADFDB5004DF060EDB5012009D
:1021F000090EDB500A0DF350DF24D00FE76E090EF5
:10220000E7CFDBFFE3EF0FF0DB50F36E050E11EFCE
:1022100010F0F70EDBCF2BF0F80EDBCF2CF0120016
:10222000DFCFE6FFEDEF0FF028DF030EECDE92EFDD
:1022300010F03FEC0BF0E552E552E552E552000993
:102240001200BDDEEE50EFCFEAFFE96E010E120084
:10225000130EDB50F36E040E11EF10F0040EDB5082
:10226000F36E090E11EF10F0DBCFE6FFEDEF0FF08C
:10227000E76E050EE7CFDBFF12008BDF10EF11F0EA
:10228000DBCFE6FF86DF19EF11F0D950F90FE96EC9
:10229000FF0EDEEF10F0E96E000EDA20EA6E12009B
:1022A000F00EE66EF1EC28F0E552938A938893865F
:1022B000938499829980938E938C9A849A8299863A
:1022C00099849A8A9A8894809A869A8E9A9C919CEC
:1022D00001017F0EB96FB9C1B8F1B9C1B7F1B9C188
:1022E000B6F1B9C1B5F1B9C1B4F1B9C1B3F1B9C170
:1022F000B2F1C16FC1C1C0F1C1C1BFF1C1C1BEF175
:10230000C1C1BDF1C1C1BCF1C1C1BBF1C1C1BAF113
:10231000000EE66EE66AE66EE66AE66EE66AE66E6F
:10232000E66AC4EC18F0F56E080EE15EF550AE0EEC
:10233000E66E010EE66E81EC18F0E552E5528EEC89
:102340001CF02BEC17F0FEEF17F0CE0EE66E010E30
:10235000E66E68EC18F0E552E5522CD8C1C1E6FFF4
:10236000C0C1E6FFBFC1E6FFBEC1E6FFCCEC24F072
:10237000E552E552E552E5520701D95112E0070155
:10238000010EEF6F1D0EEF5D0CE2EFC7E6FF94EC60
:102390001DF0E552000902E0EFC7B0F10701EF2B95
:1023A000F1D7AE0EE66E010EE66E81EC18F0E55246
:1023B000E5521200D9CFE6FFE1CFD9FF040EE126A6
:1023C000DE6ADE6ADE6A3F0EDD6EDD52DD5201013D
:1023D000D0A505D09CDAF3CFEEF73DEC17F0E3C1C2
:1023E0001EF00AEC1EF01CC02BF01DC02CF01EC00D
:1023F0002DF01FC02EF0216A226A7E0E236E430E3E
:10240000246E2BC01CF02CC01DF02DC01EF02EC061
:102410001FF0C7EC1EF01CC0DEFF1DC0DEFF1EC09B
:10242000DEFF1FC0DDFFDD52DD520701EE5101E08E
:1024300093D087B235D0D9CFE9FFDACFEAFFEECF1C
:10244000E6FFEECFE6FFEECFE6FFEFCFE6FF0101BE
:10245000D551E66EE66AE4D8F56E060EE15EF550FB
:10246000E66EE66A63D9E552E552D9CFE9FFDACFE5
:10247000EAFFEECFE6FFEECFE6FFEECFE6FFEFCFCF
:10248000E6FF0101D451E66EE66ACAD8F56E060E83
:10249000E15EF550E66EE66AA9D9E552E5525CD0F8
:1024A0000101D1A134D0D9CFE9FFDACFEAFFEECFD5
:1024B000E6FFEECFE6FFEECFE6FFEFCFE6FFD5512A
:1024C000E66EE66AADD8F56E060EE15EF550E66E94
:1024D000E66A2CD9E552E552D9CFE9FFDACFEAFF17
:1024E000EECFE6FFEECFE6FFEECFE6FFEFCFE6FF63
:1024F0000101D451E66EE66A93D8F56E060EE15EF0
:10250000F550E66EE66A72D9E552E55225D0E66AE4
:10251000E66AE66A3F0EE66ED551E66EE66A80D858
:10252000F56E060EE15EF550E66EE66AFFD8E552FE
:10253000E552E66AE66AE66A3F0EE66E0101D451AC
:10254000E66EE66A6DD8F56E060EE15EF550E66E53
:10255000E66A4CD9E552E552DAC1E6FFA6D9E55262
:10256000FFD92BDA12DB17DB55D00101CFAB52D0EC
:10257000E5C11EF00AEC1EF01CC033F01DC034F0A3
:102580001EC035F01FC036F0710E216E3D0E226E5A
:102590007A0E236E410E246E33C01CF034C01DF041
:1025A00035C01EF036C01FF01AEC1FF01CC02FF013
:1025B0001DC030F01EC031F01FC032F0216A226A07
:1025C000800E236E430E246E2FC01CF030C01DF011
:1025D00031C01EF032C01FF0C7EC1EF01CC02BF043
:1025E0001DC02CF01EC02DF01FC02EF0216A226AE3
:1025F000200E236E410E246E2BC01CF02CC01DF04B
:102600002DC01EF02EC01FF01AEC1FF0F8EC1FF0CA
:102610001EC0AEF1D9CFE1FFE552E7CFD9FF1200DE
:10262000D9CFE6FFE1CFD9FFFD0EDBCF2BF0FE0EB9
:10263000DBCF2CF0D8902C5004E6780E2B5C000EEB
:102640002C5810E3FD0EDBCF2DF0FE0EDBCF2EF06D
:102650002E3404E32D508608FF0E2E5403E37F0E24
:1026600061D060D0FD0EDBCF37F0FE0EDBCF38F04F
:102670007F0E375E000E385A37C01DF038C01EF08E
:102680001DEC1EF01CC033F01DC034F01EC035F030
:102690001FC036F033C0E6FF34C0E6FF35C0E6FFAA
:1026A00036C0E6FFDDEC2CF0E552E552E552E5528E
:1026B0001BC02FF01CC030F01DC031F01EC032F026
:1026C0002FC01CF030C01DF031C01EF032C01FF012
:1026D000F90EDBCF21F0FA0EDBCF22F0FB0EDBCFC1
:1026E00023F0FC0EDBCF24F01AEC1FF01CC02BF003
:1026F0001DC02CF01EC02DF01FC02EF0216A226AD2
:10270000FE0E236E420E246E2BC01CF02CC01DF05A
:102710002DC01EF02EC01FF031EC1EF0F8EC1FF0A3
:102720001E5000D0E552E7CFD9FF1200D9CFE6FF07
:10273000E1CFD9FFFD0EDBCF2BF0FE0EDBCF2CF06F
:10274000D8902C5004E67F0E2B5C000E2C5847E2EC
:10275000FD0EDBCF33F0FE0EDBCF34F07F0E335EA9
:10276000000E345A33C01DF034C01EF01DEC1EF0B4
:102770001CC02FF01DC030F01EC031F01FC032F061
:10278000CD0E216ECC0E226E4C0E236E3F0E246EAB
:102790002FC01CF030C01DF031C01EF032C01FF041
:1027A0001AEC1FF01CC02BF01DC02CF01EC02DF029
:1027B0001FC02EF0216A226AFE0E236E420E246E86
:1027C0002BC01CF02CC01DF02DC01EF02EC01FF021
:1027D00031EC1EF0F8EC1FF01EC0B2F103D0FD0E7C
:1027E000DBCFB2F1E552E7CFD9FF1200D9CFE6FF38
:1027F000E1CFD9FFFD0EDBCF2BF0FE0EDBCF2CF0AF
:102800002C3404E22B507F08000E2C5447E2FD0EBE
:10281000DBCF33F0FE0EDBCF34F07F0E335E000EE5
:10282000345A33C01DF034C01EF01DEC1EF01CC025
:102830002FF01DC030F01EC031F01FC032F0CD0EA1
:10284000216ECC0E226E4C0E236E3F0E246E2FC0D6
:102850001CF030C01DF031C01EF032C01FF01AEC69
:102860001FF01CC02BF01DC02CF01EC02DF01FC08F
:102870002EF0216A226AFE0E236E420E246E2BC0B9
:102880001CF02CC01DF02DC01EF02EC01FF031EC2E
:102890001EF0F8EC1FF01EC0B4F103D0FD0EDBCF2C
:1028A000B4F1E552E7CFD9FF1200D9CFE6FFE1CF6F
:1028B000D9FFFE0EDB502B6E2C6A2C3404E22B5019
:1028C000C808000E2C540AE287A404D00101C20EED
:1028D000B66F03D001017F0EB66F15D01E0EF36EDA
:1028E000FE0EDBCFF4FFF350F45C0AE287A204D0C3
:1028F00001013C0EB66F03D001017F0EB66F03D00D
:1029000001017F0EB66FE552E7CFD9FF120001013A
:10291000D051080B15E002014C5102E0000E01D02D
:10292000010E2B6E0101D051010B2B1409E00201A5
:102930004D5103E1010E4D6F01D04D6B010E4C6FF7
:102940000101D0B102D002014C6B4DC22BF02C6AB8
:102950002BBE2C682BC0F3FF2CC0F4FF00D012005C
:102960000101D051100B0AE0D051100B01E0010E13
:1029700002014E5D03E08D928D800DD00101D0519A
:10298000100B09E1D051100B01E0010E02014E5D68
:1029900002E08D908D820101D051100B01E0010EFB
:1029A00002014E5D02E18D908D920101D051100B1C
:1029B00001E0010E02014E6F1200D9CFE6FFE1CF18
:1029C000D9FF040EE126020EDB6A030EDB6A010169
:1029D000D051200B0BE00201505108E14F5102E0B1
:1029E0004F6B02D0010E4F6F010E506F0101D0BB33
:1029F00002D00201506BA70EE66EFCEC28F0E55207
:102A0000F3CFDEFFF4CFDDFF0101AE9102014F51A4
:102A100001E19CD0660E2F6E306E160E316E400EA8
:102A2000326ED6C11EF00AEC1EF01CC033F01DC081
:102A300034F01EC035F01FC036F033C021F034C072
:102A400022F035C023F036C024F02FC01CF030C077
:102A50001DF031C01EF032C01FF01AEC1FF01CC078
:102A60002BF01DC02CF01EC02DF01FC02EF0216ACF
:102A7000226A480E236E430E246E2BC01CF02CC01D
:102A80001DF02DC01EF02EC01FF031EC1EF01FEC0B
:102A900020F0020E1DC0DBFF030E1EC0DBFF020E86
:102AA000DBCF2BF0030EDBCF2CF0DECF2DF0DDCF14
:102AB0002EF0140E2D26000E2E222B502D5C2C50A5
:102AC0002E5817E3020EDBCF2FF0030EDBCF30F0D2
:102AD000DECF31F0DDCF32F0140E315E000E325A0F
:102AE00031502F5C3250305804E301017F0EB86F33
:102AF0002CD0020EDBCF2BF0030EDBCF2CF0DECF81
:102B00002DF0DDCF2EF0140E2D5E000E2E5A2D501E
:102B10002B5C2E502C5803E20101B86B16D0020E2C
:102B2000DBCF2BF0030EDBCF2CF0DECF2DF0DDCF93
:102B30002EF0140E2D26000E2E222B502D5C2C5024
:102B40002E5803E20101FE0EB86F19D00101D651D3
:102B50002B6E2C6A2C3404E22B50C808000E2C5427
:102B600004E20101FE0EB86F09D0320ED65D03E219
:102B70000101B86B03D001017F0EB86FAE81D9CFD0
:102B8000E1FFE552E7CFD9FF120088A402D08D847F
:102B900001D08D9412001200D9CFE6FFE1CFD9FF0A
:102BA000FA0EDB0401E0AAD0F90EDB5001E092D06E
:102BB000FD0EDBCF2DF0FE0EDBCF2EF0FB0EDB503B
:102BC0002D5C2B6EFC0EDB502E582C6ED8902C50AA
:102BD00004E60A0E2B5C000E2C5815E2FD0EDBCF2E
:102BE00031F0FE0EDBCF32F0FB0EDB50315C2F6E8E
:102BF000FC0EDB503258306E303404E32F50F608B0
:102C0000FF0E305408E3010E0201536F546B57C29C
:102C10005BF258C25CF2260E020154AF02D0D8908B
:102C200003D0535D000E54594EE2FD0EDBCF1DF074
:102C3000FE0EDBCF1EF05B511D5C2F6E5C511E58EB
:102C4000306E640E1D6E1E6A2FC022F030C023F05D
:102C5000ADEC1FF01BC02DF01CC02EF0260E226E16
:102C6000236A2DC01DF02EC01EF087EC1FF01DC082
:102C70002DF01EC02EF0000153C2E8FF2D02F3CF4D
:102C80002BF0F4CF2CF02E02F3502C2654C2E8FF88
:102C90002D02F3502C26640E226E236A2BC01DF0E9
:102CA0002CC01EF087EC1FF01DC02BF01EC02CF0B6
:102CB0002B5002015B25576F2C505C21586F532B12
:102CC000000E542306D0FD0EDBCF57F2FE0EDBCFF5
:102CD00058F20ED0FD0EDBCF57F2FE0EDBCF58F2CE
:102CE000010E0201536F546B57C25BF258C25CF283
:102CF00057C2F3FF58C2F4FFAAD0A9D0F90EDB5097
:102D000001E092D0FD0EDBCF2DF0FE0EDBCF2EF0DA
:102D1000FB0EDB502D5C2B6EFC0EDB502E582C6E08
:102D2000D8902C5004E60A0E2B5C000E2C5815E2AD
:102D3000FD0EDBCF31F0FE0EDBCF32F0FB0EDB50B1
:102D4000315C2F6EFC0EDB503258306E303404E3B1
:102D50002F50F608FF0E305408E3010E0201516FA8
:102D6000526B55C259F256C25AF2260E020152AFA8
:102D700002D0D89003D0515D000E52594EE2FD0EA4
:102D8000DBCF1DF0FE0EDBCF1EF059511D5C2F6E08
:102D90005A511E58306E640E1D6E1E6A2FC022F0EE
:102DA00030C023F0ADEC1FF01BC02DF01CC02EF086
:102DB000260E226E236A2DC01DF02EC01EF087EC59
:102DC0001FF01DC02DF01EC02EF0000151C2E8FF03
:102DD0002D02F3CF2BF0F4CF2CF02E02F3502C2643
:102DE00052C2E8FF2D02F3502C26640E226E236A95
:102DF0002BC01DF02CC01EF087EC1FF01DC02BF067
:102E00001EC02CF02B5002015925556F2C505A2111
:102E1000566F512B000E522306D0FD0EDBCF55F21C
:102E2000FE0EDBCF56F20ED0FD0EDBCF55F2FE0EBE
:102E3000DBCF56F2010E0201516F526B55C259F2AF
:102E400056C25AF255C2F3FF56C2F4FF00D0E55203
:102E5000E7CFD9FF1200040EE66EE66AA80EE66E12
:102E6000610EE66EEB0EE66E070EE66E09EC2AF0DA
:102E7000F56E060EE15EF5501200040EE66EE66A8F
:102E8000EB0EE66E070EE66EA80EE66E610EE66EBF
:0E2E900009EC2AF0F56E060EE15EF550120018
:022E9E00DACF89
:102EA000E4FFE2CFDAFFE9CFE4FFEACFE4FFE65246
:102EB000F2A202D0A8D802D09EB6D8D8E552E5CF6B
:102EC000EAFFE5CFE9FFE5CFDAFF1100E66A010E80
:102ED000E66E050EE66E76EC2EF0E552E552E55212
:102EE0001200070EB46E000E886E876E866E856EB9
:102EF000846E836E826E816E806E000E916E906E17
:102F00008F6E8E6E8D6E8C6E8B6E8A6E896E2F0EAE
:102F1000926E93689C0E946E956A966A9768040EFA
:102F2000986E0E0E9A6E9968C16AF19EB0989C8E4A
:102F3000A26A9F6AA06A9D6AA36AA56AC7DF9F8684
:102F4000D08E9E969D869382F06AF288F09EF098CD
:102F5000F192F09AF16AF28CF28E1200D9CFE6FF6C
:102F6000E1CFD9FFE652BDDF0101EE970101EE99F5
:102F70000701B20EE96F010EEA6FDF6A100EDF5C27
:102F80000BE2DF500701EA6AE925E96EEA51EA221D
:102F90007F0EEF6EDF2AF2D70101CB6B0101010E2C
:102FA000CC6F0101C20ECD6F0101EE850101D06B26
:102FB0000101D16B0101AE6B0101B06B0101B16B7D
:102FC000010ED56E320ED76ECF0ED66ED59EAE0EDA
:102FD000E66E010EE66E95D8E552E5520101EE93DC
:102FE000AE0EE66E010EE66E8CD8E552E55201019A
:102FF000EE93E552E552E7CFD9FF12008282808836
:10300000949292981200F2920701200EE56F9F862B
:103010000101EEA906D00701E00EE26F000EE36F9A
:1030200005D00701C00EE26F000EE36F0101EEB1A3
:1030300002D00101EE790101EEA706D00701800E52
:10304000E06F000EE16F05D00701A00EE06F000EEB
:10305000E16FC9CFE6F70701E0C7E9FFE1C7EAFF83
:10306000E02B000EE123EF50C96E12009E96C9CFEF
:10307000E6F70701E551000829E20701E2C7E9FF89
:10308000E3C7EAFFE22B000EE323E6C7EFFF0701E9
:10309000E0C7E9FFE1C7EAFFE02B000EE123EFCF35
:1030A000E6F7E6C7C9FF0701E5070701E5510DE1AE
:1030B0000101020ECC6F0101EE930101EE81320E8F
:1030C000D76ECF0ED66EF294D58E01D0C96A12009B
:1030D000D9CFE6FFE1CFD9FF0101EEA10ED0FD0E61
:1030E000DBCFE6FFFE0EDBCFE6FF38EC24F0E55247
:1030F000E5529D960101EE919D86E552E7CFD9FFFD
:103100001200D9CFE6FFE1CFD9FF0101EEB333D0F2
:10311000FD0EDBCFE9FFFE0EDBCFEAFF1E0EE92638
:10312000000EEA22EF50020809E1FD0EDBCFE6FFB8
:10313000FE0EDBCFE6FF6ED8E552E552FD0EDBCF8B
:10314000E9FFFE0EDBCFEAFF150EE926000EEA22AC
:10315000EF9EFD0EDBCFE6FFFE0EDBCFE6FFA6EC1B
:1031600023F0E552E5529D960101EE770101EE83D1
:103170009D860101CB2BE552E7CFD9FF12009D962A
:103180000101EE919D861200D9CFE6FFE1CFD9FF74
:103190000001166BD950FD0FE96EFF0EDA20EA6EC2
:1031A000010EEE1801E1ED5003E10001168101D09E
:1031B000BA6AD950FB0FE96EFF0EDA20EA6E010EF3
:1031C000EE1801E1ED5003E10001168301D0B76A6A
:1031D000D950F90FE96EFF0EDA20EA6E010EEE18F3
:1031E00001E1ED5003E10001168501D0736AD95069
:1031F000F70FE96EFF0EDA20EA6E010EEE1801E11C
:10320000ED5003E10001168701D0706AE552E7CF67
:10321000D9FF1200D9CFE6FFE1CFD9FFFD0EDBCFFA
:10322000E9FFFE0EDBCFEAFF1C0EE926000EEA22C4
:10323000EF6AFD0EDBCFE9FFFE0EDBCFEAFF170ED4
:10324000E926000EEA22EF6AC6AE0ED0C69EFD0E3B
:10325000DBCFE9FFFE0EDBCFEAFF170EE926000EFB
:10326000EA22010EEF6E22D0F150800B10E0F250F6
:10327000080B0DE0FD0EDBCFE9FFFE0EDBCFEAFF12
:10328000170EE926000EEA22020EEF6E0FD0F0A60E
:103290000DD0909EFD0EDBCFE9FFFE0EDBCFEAFFE7
:1032A000170EE926000EEA22030EEF6E250EC61455
:1032B000250819E0FD0EDBCFE9FFFE0EDBCFEAFFAC
:1032C0001C0EE926000EEA22010EEF6EFD0EDBCF8A
:1032D000E9FFFE0EDBCFEAFF170EE926000EEA2219
:1032E000C6CFEFFF80D1C55019E0FD0EDBCFE9FF5F
:1032F000FE0EDBCFEAFF1C0EE926000EEA22020ECC
:10330000EF6EFD0EDBCFE9FFFE0EDBCFEAFF170EFF
:10331000E926000EEA22C5CFEFFF65D1D0BE19D055
:10332000FD0EDBCFE9FFFE0EDBCFEAFF1C0EE92628
:10333000000EEA22030EEF6EFD0EDBCFE9FFFE0E5C
:10334000DBCFEAFF170EE926000EEA22D0CFEFFF0F
:103350004AD19DB619D0FD0EDBCFE9FFFE0EDBCFC3
:10336000EAFF1C0EE926000EEA22040EEF6EFD0EA7
:10337000DBCFE9FFFE0EDBCFEAFF170EE926000EDA
:10338000EA229DCFEFFF2FD19C5019E0FD0EDBCF3D
:10339000E9FFFE0EDBCFEAFF1C0EE926000EEA2253
:1033A000050EEF6EFD0EDBCFE9FFFE0EDBCFEAFF71
:1033B000170EE926000EEA229CCFEFFF14D1080E6B
:1033C0009F5C19E0FD0EDBCFE9FFFE0EDBCFEAFFCD
:1033D0001C0EE926000EEA22060EEF6EFD0EDBCF74
:1033E000E9FFFE0EDBCFEAFF170EE926000EEA2208
:1033F0009FCFEFFFF8D0A25019E0FD0EDBCFE9FF21
:10340000FE0EDBCFEAFF1C0EE926000EEA22070EB5
:10341000EF6EFD0EDBCFE9FFFE0EDBCFEAFF170EEE
:10342000E926000EEA22A2CFEFFFDDD0A55019E079
:10343000FD0EDBCFE9FFFE0EDBCFEAFF1C0EE92617
:10344000000EEA22080EEF6EFD0EDBCFE9FFFE0E46
:10345000DBCFEAFF170EE926000EEA22A5CFEFFF29
:10346000C2D0100EF214100819E0FD0EDBCFE9FFF8
:10347000FE0EDBCFEAFF1C0EE926000EEA22090E43
:10348000EF6EFD0EDBCFE9FFFE0EDBCFEAFF170E7E
:10349000E926000EEA22F2CFEFFFA5D0470EF11485
:1034A00019E0FD0EDBCFE9FFFE0EDBCFEAFF1C0EBD
:1034B000E926000EEA220A0EEF6EFD0EDBCFE9FFD1
:1034C000FE0EDBCFEAFF170EE926000EEA22F1CF4F
:1034D000EFFF89D0C00EF01419E0FD0EDBCFE9FF3D
:1034E000FE0EDBCFEAFF1C0EE926000EEA220B0ED1
:1034F000EF6EFD0EDBCFE9FFFE0EDBCFEAFF170E0E
:10350000E926000EEA22F0CFEFFF6DD092A819D085
:10351000FD0EDBCFE9FFFE0EDBCFEAFF1C0EE92636
:10352000000EEA220C0EEF6EFD0EDBCFE9FFFE0E61
:10353000DBCFEAFF170EE926000EEA2292CFEFFF5B
:1035400052D093B019D0FD0EDBCFE9FFFE0EDBCFDA
:10355000EAFF1C0EE926000EEA220D0EEF6EFD0EAC
:10356000DBCFE9FFFE0EDBCFEAFF170EE926000EE8
:10357000EA2293CFEFFF37D03E0E94141C0819E0D7
:10358000FD0EDBCFE9FFFE0EDBCFEAFF1C0EE926C6
:10359000000EEA220E0EEF6EFD0EDBCFE9FFFE0EEF
:1035A000DBCFEAFF170EE926000EEA2294CFEFFFE9
:1035B0001AD097BE18D0FD0EDBCFE9FFFE0EDBCF91
:1035C000EAFF1C0EE926000EEA220F0EEF6EFD0E3A
:1035D000DBCFE9FFFE0EDBCFEAFF170EE926000E78
:0E35E000EA2297CFEFFFE552E7CFD9FF1200A6
:0235EE00D9CF33
:1035F000E6FFE1CFD9FFF29CFD0EDBCFE9FFFE0E27
:10360000DBCFEAFFEE52EF6AFD0EDBCFE9FFFE0EE5
:10361000DBCFEAFF540EE926000EEA22EF6AF28CB5
:10362000E552E7CFD9FF1200D9CFE6FFE1CFD9FFAE
:10363000E6520701AE0E7C6F0F0E7D6FAD0E7E6FF2
:103640000F0E7F6F010E276F270EE66E070EE66ED8
:10365000CEDFE552E55207016E0ED56F0F0ED66F25
:103660006D0ED76F0F0ED86F020E806F800EE66E54
:10367000070EE66EBCDFE552E552150EE66EFC0E57
:10368000E66EDBEC2EF0E552E5529F989F9A949CF3
:10369000948EAE50DF6EAE50DF6E9E9A150EE66EC3
:1036A0007C0EE66EA9EC2EF0E552E552A59AA5989F
:1036B000989298846E50DF6E6E50DF6EA49A070168
:1036C000D96BE552E552E7CFD9FF1200D9CFE6FF1B
:1036D000E1CFD9FFFD0EDBCFE9FFFE0EDBCFEAFF26
:1036E000EF0402E19D8801D0A388E552E7CFD9FF1E
:1036F0001200D9CFE6FFE1CFD9FFD950FD0FE96E17
:10370000FF0EDA20EA6EEE50ED100AE19EA807D017
:10371000270EE66E070EE66ED9DFE552E55209D0B8
:10372000A4A807D0800EE66E070EE66ECFDFE55246
:10373000E552E552E7CFD9FF1200D9CFE6FFE1CF3E
:10374000D9FFD950FD0FE96EFF0EDA20EA6EEE5078
:10375000ED1005E1ABB2AB98AB889D8A04D06BB29B
:103760006B986B88A38AE552E7CFD9FF1200D9CFB7
:10377000E6FFE1CFD9FFFD0EDBCFE9FFFE0EDBCF89
:10378000EAFFEF0403E19E989D9802D0A498A398C5
:10379000E552E7CFD9FF1200D9CFE6FFE1CFD9FF3D
:1037A000FD0EDBCFE9FFFE0EDBCFEAFFEE52EF505E
:1037B0000AE1FD0EDBCFE6FFFE0EDBCFE6FFD7DF33
:1037C000E552E5522FD0FD0EDBCFE9FFFE0EDBCF39
:1037D000EAFF020EE926000EEA22EECFF3FFEDCF5C
:1037E000F4FFEE2AEF22F3CFE9FFF4CFEAFFEF5028
:1037F000E66EFD0EDBCFE9FFFE0EDBCFEAFF570ED4
:10380000E926000EEA22EE50EFCFEAFFE96EE5521C
:10381000E750EF6EFD0EDBCFE9FFFE0EDBCFEAFFD8
:10382000EE52EF06E552E7CFD9FF1200D9CFE6FFFF
:10383000E1CFD9FF07012651050A39E0010A2FE03F
:10384000070A25E0010A16E0030A0CE0010A02E07B
:10385000266B34D0266BFE0EDB50C90802E1010E48
:10386000266F2CD0266BFE0EDB50170802E1020EED
:10387000266F24D0FE0EDBCF22F7DBCFC6F122511C
:10388000800B01E0010ED96F030E266F17D0FE0EDC
:10389000DBCF23F7DBCFC7F1040E266F0FD0FE0E70
:1038A000DBCF24F7DBCFC8F1050E266F07D0FE0E65
:1038B000DBCF25F7DBCFC9F1266B00D0E552E7CF90
:1038C000D9FF12009EAA0AD09E9A7CC7E9FF7DC745
:1038D000EAFFEF50E66EAADFE5521FD09EA807D0A0
:1038E000270EE66E070EE66E57DFE552E552A4AAF4
:1038F0000BD0A49AD5C7E9FFD6C7EAFFEF50E66E12
:1039000042EC26F0E55209D0A4A807D0800EE66E5E
:10391000070EE66E41DFE552E552120014EF1BF090
:10392000D9CFE6FFE1CFD9FF590E1D6E1E6AFD0EFD
:10393000DBCF22F0FE0EDBCF23F0ADEC1FF01BC07F
:10394000DAF71CC0DBF7270E0701DA27070EDB23A7
:10395000F29CDAC7E9FFDBC7EAFF020EE926000E98
:10396000EA22FB0EDBCFEEFFFC0EDBCFEDFFDAC76A
:10397000E9FFDBC7EAFFEE52F90EDBCFEFFFF28C77
:10398000FD0EDBCFE6FFFE0EDBCFE6FFB2DEE5523B
:10399000E552E552E7CFD9FF1200D9CFE6FFE1CFDC
:1039A000D9FFFD0EDBCFE9FFFE0EDBCFEAFF590E9C
:1039B000EA02F3CFEAFFE902F3CFE9FFF450EA2687
:1039C000270EE926070EEA22EE52EF50000801E228
:1039D000E8D7F90EDBCF2BF0FA0EDBCF2CF02C342E
:1039E00004E22B505008000E2C5407E2500EF36EE8
:1039F000F90EF3CFDBFFFA0EDB6AFB0EDBCF2BF009
:103A0000FC0EDBCF2CF02D6A2BC0E6FF2CC0E6FFAE
:103A10002DC0E6FF000EE66E070EE66E59EC2AF0AA
:103A2000F56E050EE15EF550F90EDBCFE6FFFA0EFE
:103A3000DBCFE6FF000EE66E070EE66EFD0EDBCF77
:103A4000E6FFFE0EDBCFE6FF6BDFF56E060EE15EF6
:103A5000F550000E00D0E552E7CFD9FF1200D9CFC4
:103A6000E6FFE1CFD9FF590E1D6E1E6AFD0EDBCFBA
:103A700022F0FE0EDBCF23F0ADEC1FF01BC0DCF715
:103A80001CC0DDF7270E0701DC27070EDD23DCC78E
:103A9000E9FFDDC7EAFF570EE926000EEA22EE50E5
:103AA000EFCFEAFFE96EFB0EDBCFEFFFD950FD0F42
:103AB000E96EFF0EDA20EA6EEE50ED1003E19EA8EB
:103AC000FED702D0A4A8FED7E552E7CFD9FF120057
:103AD000D9CFE6FFE1CFD9FF07012851000801E265
:103AE000FBD77B517B2BEA6A2B0FE96E070EEA228C
:103AF000FE0EDBCFEFFFDB500D0803E0500E7B5DC9
:103B00000FE3F29C2B0E296F070E2A6F7BC728F755
:103B1000F28C7B6B000EE66EE66AEBDDE552E55259
:103B2000E552E7CFD9FF1200D9CFE6FFE1CFD9FFA9
:103B3000020EE126010EDB6A090EF36EFE0EDBCFEC
:103B4000F4FFF350F45C13E2FE0EDB042B6E010E67
:103B50002B5204E0E846FE0B2B06FCE1DF6EDF5043
:103B600007012515E76E010EE7CFDBFF4BD0110EE5
:103B7000F36EFE0EDBCFF4FFF350F45C14E2FE0EA6
:103B8000DB50F70F2B6E010E2B5204E0E846FE0BC4
:103B90002B06FCE1DF6EDF5007012415E76E010EF6
:103BA000E7CFDBFF2FD0190EF36EFE0EDBCFF4FF55
:103BB000F350F45C14E2FE0EDB50EF0F2B6E010E9F
:103BC0002B5204E0E846FE0B2B06FCE1DF6EDF50D3
:103BD00007012315E76E010EE7CFDBFF13D0FE0EC2
:103BE000DB50E70F2B6E010E2B5204E0E846FE0B74
:103BF0002B06FCE1DF6EDF5007012215E76E010E98
:103C0000E7CFDBFFDB5000D0D9CFE1FFE552E7CFB4
:043C1000D9FF1200C6
:0C3C1400269E05D0269E1EAE02D01E6C1F
:103C2000268E1EC018F0176A2A6A296A860E196E37
:103C30001A6A6AEF20F0269E08D0269E1EAE05D096
:103C40001D6C1E1EE86A1E22268E1EC018F01DC0A6
:103C500017F02A6A296A8E0E196E1A6A6AEF20F026
:103C6000247E266AA6EC20F0BEEC20F026B64EEFAD
:103C700020F026A20AD026AA03D026BE4EEF20F0BE
:103C800026A45AEF20F057EF20F026AA05D026AC44
:103C90005AEF20F057EF20F026A00AD026A808D02F
:103CA00026BE04D026A402D063EF20F067EF20F0F8
:103CB000296A1A6A24501F5C286E10E31CC02AF07F
:103CC0001DC017F01EC018F01FC027F021C01CF047
:103CD00022C01DF023C01EF0263A09D021C02AF0D0
:103CE00022C017F023C018F024C027F0286C269EAD
:103CF00026BC268E27C019F026B096EF20F01A0EAB
:103D0000286096EF20F0196A1F6A26A408D01C6C60
:103D10001D1E1E1E1F1EE86A1D221E221F2226AC0B
:103D200008D02A6C171E181E191EE86A17221822BE
:103D300019221B6A285207E01F341E321D321C3222
:103D40001B32282EF9D71C502A261D5017221E5030
:103D500018221F5019221BC029F0269E19AE0BD025
:103D6000296C2A1E171E181E191EE86A2A221722FD
:103D700018221922268E19A006D0D88018321732A0
:103D80002A322932272A27C019F06AEF20F0266A42
:103D9000A6EC20F0BEEC20F026B64EEF20F026A2D6
:103DA00005D026BA4EEF20F055EF20F026BA61EF8D
:103DB00020F026A005D026B84EEF20F061EF20F0CD
:103DC00026B855EF20F01A6A7F0E1F24196EE86A94
:103DD0001A222450195EE86A1A5A1A0E276E1F6AB0
:103DE000296A2A6A176A186A21501C5E22501D5AD5
:103DF00023501E5A000E1F5A09E721501C2622503C
:103E00001D2223501E22000E1F2201D0298AD89085
:103E10001C361D361E361F36D89029362A361736E0
:103E20001836272EE1D71E501D101C10D8A4298A41
:103E30006AEF20F0266AA6EC20F0BEEC20F026B651
:103E40004EEF20F026A205D026B84EEF20F055EF19
:103E500020F026AA05D026B04EEF20F055EF20F036
:103E600026B002D026A802D061EF20F01A6A2450B2
:103E70001F24196EE86A1A227E0E195EE86A1A5A21
:103E8000296A2A6A176A186A23501E02F4CF18F0AA
:103E9000F3CF17F022501E02F3502A26F4501722B7
:103EA000000E182223501D02F3502A26F450172228
:103EB000000E182221501E02F3502926F4502A2207
:103EC000000E1722182222501D02F3502926F4500A
:103ED0002A22000E1722182223501C02F3502926F2
:103EE000F4502A22000E1722182221501D02F450ED
:103EF0002926000E2A221722182222501C02F450D2
:103F00002926000E2A22172218226AEF20F0256A9D
:103F100023AE90EF1FF0226C231EE86A2322251E99
:103F20001EAE98EF1FF01D6C1E1EE86A1E22251E95
:103F300045EC30F01EBEA8EF1FF025AE000C1D6C46
:103F40001E1EE86A1E22196C1A1EE86A1A22000C4C
:103F500025BE9FEF1FF02688FF0C1EC02AF01DC053
:103F600029F01D502202F4CF1CF0F3CF1BF01E509D
:103F70002302F4CF1EF0F3CF1DF02202F3501C26D3
:103F8000F4501D22E86A1E2229502302F3501C26F9
:103F9000F4501D22E86A1E2223AED3EF1FF02950F1
:103FA0001D5E2A501E5A2AAE000C22501D5E235060
:103FB0001E5A000C1DC029F01D502202F4CF1CF027
:103FC000F3CF1BF01E502302F4CF1EF0F3CF1DF0F1
:103FD0002202F3501C26F4501D22E86A1E222950AA
:103FE0002302F3501C26F4501D22E86A1E22000C06
:103FF000266AA6EC20F026B602EF20F026A20AD010
:1040000026B403D07F0E1E6E19D0800E1E6E16D001
:104010001E6A14D026B0FCD7870E1F60F1D77E0E23
:104020001F64F6D7860E1F5C04E0D8901E321F2A4C
:10403000F9D726A403D01E6C1EAEEAD71200266A5A
:10404000A6EC20F026B629EF20F026A20ED026B44A
:1040500005D07F0E1E6EFF0E1D6E1FD0800E1E6ED1
:104060001D6A1BD01E6A1D6A18D026B0FBD78F0EA2
:104070001F60EDD77E0E1F64F5D78E0E1F5C05E026
:10408000D8901E321D321F2AF8D726A406D01D6CE8
:104090001E1EE86A1E221EAEE5D712007F0E1F6E9E
:1040A000FF0E1E6E1D6E1C6E12007F0E26BEFF0ED2
:1040B0001F6E02D07F0E1F6E800E1E6E1D6A1C6A60
:1040C000F3D726AE04D0800E1F6E1E6AF7D71F6A84
:1040D0001E6AF4D7185017102A102910F8E01ABEDB
:1040E000F0D718BE0CD019501A10EBE0D890293632
:1040F0002A36173618361906D8A01A06F2D71A50DB
:10410000D4E11928D2E029AE11D07F0E291402E1A2
:104110002AA00CD02A2AE86A1722182207E3D8809E
:10412000183217322A32192A1928BFE01950C9E06B
:104130002AC01CF017C01DF018341E6E19301F6EF7
:104140001E321F9E26BE1F8E54EF20F01E361F36D5
:1041500002E32684267E06E126801F6A1E6A1D6A07
:104160001C6A12001F2803E0D8801E321200D8906B
:104170001E3202E1268212002686120023362436E1
:1041800002E3268C267E06E12688246A236A226AB8
:10419000216A1200242803E0D88023321200D8902C
:0841A0002332EAE1268A120035
:0841A800D9CFE6FFE1CFD9FFFA
:1041B000290EE66EE66AFE0EDB50290DF3CF2BF0DA
:1041C000F4CF2CF0780E2B26520E2C222D6A2BC009
:1041D000E6FF2CC0E6FF2DC0E6FF000EE66E020EE5
:1041E000E66E34EC2AF0F56E070EE15EF550E5520E
:1041F000E7CFD9FF12000101CFAD13D10101EEA12C
:104200000FD1CE0EE66E010EE66E68EC18F0E552A8
:10421000E552C5EC15F002017351040A01E1E9D041
:10422000070A19E0010A14E0030A0FE0010A01E09D
:10423000E1D0E66AB9DFE5520CDA0201296F04DA4F
:10424000F3CF2AF20201010E736F020E736FD2D008
:10425000030E736FCFD028C2E6FF74C2E6FF26C2FA
:10426000E6FF29C2E6FF01C2E6FF2AC2E9FFEA6AC9
:10427000E9BEEA68D890E936EA36140EE926020E5D
:10428000EA22EECFE6FFEFCFE6FF00C2E6FF2AC24A
:10429000E9FFEA6AE9BEEA68D890E936EA36020E32
:1042A000E926020EEA22EECFE6FFEFCFE6FFBAD80C
:1042B000F56E0A0EE15EF550000901E199D07F0E1E
:1042C0000201005D25E17F0E015D22E10201040E85
:1042D000736F7F0EE66EE66A96EC13F0E552E552D8
:1042E0007F0EE66EE66AF6EC13F0E552E552930EA9
:1042F0002B6E580E2C6E2D6A2BC0E6FF2CC0E6FFED
:104300002DC0E6FFB2EC2DF0E552E552E55270D03B
:104310000201742B74C2E6FF47DFE55274C22BF032
:104320002C6A2BBE2C682BC0E6FF2CC0E6FF780E53
:104330002D6E580E2E6E2F6A2DC0E6FF2EC0E6FFA2
:104340002FC0E6FFB2EC2DF0F56E050EE15EF550E4
:1043500026C22BF02C6A2BBE2C682BC0E6FF2CC08B
:10436000E6FF02010151E66EE66A2AC2E9FFEA6A47
:10437000E9BEEA68D890E936EA36140EE926020E5C
:10438000EA22EECFE6FFEFCFE6FF0051E66EE66AE7
:104390002AC2E9FFEA6AE9BEEA68D890E936EA3655
:1043A000020EE926020EEA22EECFE6FFEFCFE6FF8D
:1043B000270E2D6E580E2E6E2F6A2DC0E6FF2EC0D2
:1043C000E6FF2FC0E6FFB2EC2DF0F56E0D0EE15EBC
:1043D000F5500201285105E177C275F278C276F2F4
:1043E00004D075C277F276C278F20201020E736FC2
:1043F00001D000D0C1C1E6FFC0C1E6FFBFC1E6FFEA
:10440000BEC1E6FFCCEC24F0E552E552E552E552A0
:10441000AE0EE66E010EE66E81EC18F0E552E55246
:10442000EAD61200D9CFE6FFE1CFD9FFE652DF6A24
:104430008850100B01E0010E02012B5D0AE0020121
:10444000752B000E76238850100B01E0010E02013F
:104450002B6F8850200B01E0010E2C5D0AE0020159
:10446000772B000E78238850200B01E0010E02010B
:104470002C6FFC0EDBCF2BF07F0EE76E2B18E8AE17
:1044800002D0E73402D0E7502B5C3FE2FC0EDB5059
:10449000810F336E33C01EF00CEC1EF01CC02FF0E9
:1044A0001DC030F01EC031F01FC032F0CD0E216EA5
:1044B000CC0E226E4C0E236E3F0E246E2FC01CF0CD
:1044C00030C01DF031C01EF032C01FF01AEC1FF0DA
:1044D0001CC02BF01DC02CF01EC02DF01FC02EF0F4
:1044E000216A226AFE0E236E420E246E2BC01CF03F
:1044F0002CC01DF02DC01EF02EC01FF031EC1EF0A0
:10450000F8EC1FF01EC0B2F103D0FC0EDBCFB2F10D
:10451000F90EDBCF2BF07F0EE76E2B18E8AE02D042
:104520002B3403D0E750D8802B543FE2F90EDB50F8
:10453000810F336E33C01EF00CEC1EF01CC02FF048
:104540001DC030F01EC031F01FC032F0CD0E216E04
:10455000CC0E226E4C0E236E3F0E246E2FC01CF02C
:1045600030C01DF031C01EF032C01FF01AEC1FF039
:104570001CC02BF01DC02CF01EC02DF01FC02EF053
:10458000216A226AFE0E236E420E246E2BC01CF09E
:104590002CC01DF02DC01EF02EC01FF031EC1EF0FF
:1045A000F8EC1FF01EC0B4F103D0F90EDBCFB4F16C
:1045B0000101B451E66EE66AB251E66EE66A030E98
:1045C0002B6E580E2C6E2D6A2BC0E6FF2CC0E6FF1A
:1045D0002DC0E6FFB2EC2DF0F56E070EE15EF55052
:1045E000F50EDB500DE0FD0EDBCF2BF0FE0EDBCF2A
:1045F0002CF002012B50755D2C50765901E2DF2A18
:10460000F50EDB500DE1FA0EDBCF2BF0FB0EDBCF0E
:104610002CF002012B50775D2C50785901E2DF2AF3
:10462000F70EDB5005E001017F0EB26FB46FAE856F
:10463000DF5003E0000E03D002D0010E00D0E5529F
:10464000E552E7CFD9FF1200080EF36EF46A00D0EE
:104650001200D9CFE6FFE1CFD9FF030EE126010E0C
:10466000DF6EDB6A08D004D0DE52010EDD6E03D0AF
:10467000DE52020EDD6EDF50010A1FE0010A01E08A
:1046800034D0010EDB50020A11E0030A09E0010AEE
:1046900001E012D0030EF36E020EF3CFDBFF0CD05D
:1046A000050EF36E020EF3CFDBFF06D0040EF36EA1
:1046B000020EF3CFDBFF00D018D0010EDB50020A50
:1046C0000DE0030A06E0010A01E00ED0020EDB6AEB
:1046D0000BD0020EF36EF3CFDBFF06D0010EF36EAC
:1046E000020EF3CFDBFF00D000D0030E00D0D9CFF5
:0A46F000E1FFE552E7CFD9FF120009
:0646FA00000EE96EEA6EFD
:1047000004008AEC23F0EA2A080EEA5CD8A480EFC1
:1047100023F01200EF6AE93E8AEF23F01200FF0E49
:10472000E3CF09F009380F0B060FD8B2070F2A0F95
:10473000AD6EFFEC27F009500F0B060FD8B2070F34
:104740002A0FAD6EFFEC27F0000C1200EACF04F048
:10475000E9CF05F0FF0EE3CFEAFFFE0EE3CFE9FF5E
:10476000EEA741D0EECFA0F0EECFA1F0EECFA2F0B9
:10477000EECFA3F0EECFA4F0EECFA5F0EECFA6F0F3
:10478000EECFA7F0EECFA8F0EECFA9F0EECFAAF0D3
:10479000EECFABF0EECFACF0EECFADF0EECFAEF0B3
:1047A000EECFAFF0EECFB0F0EECFB1F0EECFB2F093
:1047B000EECFB3F0EECFB4F0EECFB5F0EECFB6F073
:1047C000EECFB7F0EECFB8F0EECFB9F0EECFBAF053
:1047D000EECFBBF0EECFBCF0EECFBDF0EECFBEF033
:1047E000EECFBFF040D0EECF80F0EECF81F0EECF35
:1047F00082F0EECF83F0EECF84F0EECF85F0EECFF7
:1048000086F0EECF87F0EECF88F0EECF89F0EECFD6
:104810008AF0EECF8BF0EECF8CF0EECF8DF0EECFB6
:104820008EF0EECF8FF0EECF90F0EECF91F0EECF96
:1048300092F0EECF93F0EECF94F0EECF95F0EECF76
:1048400096F0EECF97F0EECF98F0EECF99F0EECF56
:104850009AF0EECF9BF0EECF9CF0EECF9DF0EECF36
:104860009EF0EECF9FF004C0EAFF05C0E9FF120002
:10487000EEA11200EACF04F0E9CF05F0FF0EE3CF7E
:10488000EAFFFE0EE3CFE9FFEEA941D0C0C0EEFF84
:10489000C1C0EEFFC2C0EEFFC3C0EEFFC4C0EEFF5A
:1048A000C5C0EEFFC6C0EEFFC7C0EEFFC8C0EEFF3A
:1048B000C9C0EEFFCAC0EEFFCBC0EEFFCCC0EEFF1A
:1048C000CDC0EEFFCEC0EEFFCFC0EEFFD0C0EEFFFA
:1048D000D1C0EEFFD2C0EEFFD3C0EEFFD4C0EEFFDA
:1048E000D5C0EEFFD6C0EEFFD7C0EEFFD8C0EEFFBA
:1048F000D9C0EEFFDAC0EEFFDBC0EEFFDCC0EEFF9A
:10490000DDC0EEFFDEC0EEFFDFC0EEFF40D0E0C056
:10491000EEFFE1C0EEFFE2C0EEFFE3C0EEFFE4C059
:10492000EEFFE5C0EEFFE6C0EEFFE7C0EEFFE8C039
:10493000EEFFE9C0EEFFEAC0EEFFEBC0EEFFECC019
:10494000EEFFEDC0EEFFEEC0EEFFEFC0EEFFF0C0F9
:10495000EEFFF1C0EEFFF2C0EEFFF3C0EEFFF4C0D9
:10496000EEFFF5C0EEFFF6C0EEFFF7C0EEFFF8C0B9
:10497000EEFFF9C0EEFFFAC0EEFFFBC0EEFFFCC099
:10498000EEFFFDC0EEFFFEC0EEFFFFC0EEFF04C075
:10499000EAFF05C0E9FF1200F2B4120016500F0A38
:1049A000D8B41200FF0EE3CF0AF0FE0EE3CF0BF0F7
:1049B000FD0EE3CF0CF0FC0EE3CF0DF00A2A16A09B
:1049C0008D8E0B2A16A28F800C2A16A48F860D2A94
:1049D00016A68F880E6A0F6A106A116A1FEC25F0FE
:1049E0000A2EF5EF24F016A08D9E0B2EFAEF24F080
:1049F00016A28F900C2EFFEF24F016A48F960000C5
:104A00000D2E05EF25F016A68F9800000E2E0AEF4A
:104A100025F0129000000F2E0FEF25F012920000EB
:104A2000102E14EF25F012940000112E19EF25F02E
:104A3000129641EC25F0133EF0EF24F01200D70E51
:104A4000136E000000000000000037EC25F0132E6C
:104A500021EF25F0D70E136E0000000000000000CB
:104A600037EC25F0132E2CEF25F00000120000008B
:104A70003AEF25F0000000000000000000000000F8
:104A80001200030E146E0000142E43EF25F01200E6
:104A9000D8CFE4FFE0CFE4FFE46EDACFE4FFE2CF6B
:104AA000DAFFE9CFE4FFEACFE4FFF3CFE4FFF4CF8E
:104AB000E4FFE652D9CFE6FFE1CFD9FFE652F0504E
:104AC000020B05E0F050100B02E0F09214D0F05011
:104AD000040B05E0F050200B02E0F0940CD0F250F3
:104AE000010B07E0F250080B04E08150DF6EF290FA
:104AF00002D062EC1CF0E552E552E7CFD9FFE55257
:104B0000E5CFF4FFE5CFF3FFE5CFEAFFE5CFE9FF1F
:104B1000E5CFDAFFE550E5CFE0FFE5CFD8FF1000A5
:104B2000D9CFE6FFE1CFD9FF090EE126DE6ADD6AC3
:104B3000020EDB6A030EDB6A01017F0EB96FB9C199
:104B4000B8F1B9C1B7F1B9C1B6F1B9C1B5F1B9C1DF
:104B5000B4F1B9C1B3F1B9C1B2F1C16FC1C1C0F112
:104B6000C1C1BFF1C1C1BEF1C1C1BDF1C1C1BCF183
:104B7000C1C1BBF1C1C1BAF18C928D928C908D9064
:104B80008C968D968C948D948C9A8D9A8C988D9809
:104B90008C9E91908C9C8D9C8150040B01E0010EA9
:104BA000E76E050EE7CFDBFFDB5006E1010EF36E8B
:104BB000050EF3CFDBFF02D0050EDB6A8150080B38
:104BC00001E0010EE76E060EE7CFDBFFDB5006E1EA
:104BD000010EF36E060EF3CFDBFF02D0060EDB6A8A
:104BE0008150100B01E0010EE76E070EE7CFDBFFEF
:104BF000DB5006E1010EF36E070EF3CFDBFF02D0B0
:104C0000070EDB6A8150200B01E0010EE76E080EF3
:104C1000E7CFDBFFDB5006E1010EF36E080EF3CFAA
:104C2000DBFF02D0080EDB6A010EF36E040EF3CF39
:104C3000DBFFDB50050A1AE0010A15E0070A10E065
:104C4000010A0BE0030A06E0010A01E012D068EC59
:104C50002FF011D0FBEC20F00ED0DCEC2FF00BD0BD
:104C6000B6EC2FF008D0A5EC2AF005D090EC2FF090
:104C700002D068EC2FF0D9CFE1FFE552E7CFD9FFA2
:104C800012001200D9CFE6FFE1CFD9FF02012F5168
:104C900030116AE102016151621121E1FE0EDB5027
:104CA0000D0805E0400E5D1901E15E510CE1580E62
:104CB0005D25E96E010E5E21EA6EEF6A010E0201CA
:104CC0002F6F306B0CD0580E5D25E96E010E5E2102
:104CD000EA6EFE0EDBCFEFFF5D2B000E5E230201BE
:104CE000010E611901E162513FE1FE0EDB505408F3
:104CF0000BE102012F6B306BFE0EDBCF58F1010E82
:104D000002015D6F5E6B30D0000ED8805D55000EE5
:104D10005E552AE2FE0EDB502B6E2C6AFF0E2B181E
:104D200001E12C5005E0400E5D1901E15E5110E1FA
:104D30005D515E1101E118D0580E5D25E96E010E3E
:104D40005E21EA6EEF6A010E02012F6F306B0CD00C
:104D5000580E5D25E96E010E5E21EA6EFE0EDBCF78
:104D6000EFFF5D2B000E5E23E552E7CFD9FF120067
:104D7000D9CFE6FFDACFE6FFE1CFD9FFE2CFDAFF06
:104D8000130EE12402E3E168E652E16E0C0EDB6AE9
:104D9000D950FA0FE96EFF0EDA20EA6E080EEECF58
:104DA000DBFF090EEECFDBFF0A0EEECFDBFF0B0EB3
:104DB000EECFDBFF1DD9D950080F15D9EECFE6FF96
:104DC000EECFE6FFEECFE6FFEFCFE6FF35EC2BF0C0
:104DD000F56E060EE15C02E2E16AE552E16EF55025
:104DE000DF6E020EDF5C01E0BCD0050EDBCF2DF0E4
:104DF000060EDBCF2EF0F80EDB502D5C2B6EF90E7D
:104E0000DB502E582C6E7F0E2B5E000E2C5A0D0E92
:104E10002BC0DBFF0E0E2CC0DBFF0D0E0E0EDBCF0A
:104E20002CF00001800E2C140AE0010EF36E0C0E23
:104E3000F3CFDBFF070EDB5001E098D09DD00D0EC5
:104E4000DBCF2BF00E0EDBCF2CF0D8902C5004E6ED
:104E5000170E2B5C000E2C5801E39ED02F68306893
:104E60007F0E316E326A0D0EDB501F0B2FC02BF000
:104E700030C02CF031C02DF032C02EF007E0D890B9
:104E80002E322D322C322B32E806F9E10F0E2BC0D8
:104E9000DBFF100E2CC0DBFF110E2DC0DBFF120E4E
:104EA0002EC0DBFF0F0EDBCF2BF0100EDBCF2CF074
:104EB000110EDBCF2DF0120EDBCF2EF0D950010FEB
:104EC00092D8EE502B16EE502C16EE502D16EE50BA
:104ED0002E162B502C102D102E1002E1000E01D09A
:104EE000010EE76E0C0EE7CFDBFFDB5055E02F6ABB
:104EF000306A800E316E326A010E336E346A356A62
:104F0000366AD9500F0F6FD8EE503326EE50342248
:104F1000EE503522EE50362233502F5C2B6E34503B
:104F200030582C6E355031582D6E365032582E6E0A
:104F3000D950010F58D82B50EE162C50EE162D508C
:104F4000EE162E50EE16D950080FE66E000EDA203F
:104F5000E66E4ED850EC2CF0E552E552E552E552A3
:104F60001BD0DF0419E1070EDB5006E02B6A2C6A28
:104F70002D6A800E2E6E04D02B6A2C6A2D6A2E6A42
:104F8000080E2BC0DBFF090E2CC0DBFF0A0E2DC064
:104F9000DBFF0B0E2EC0DBFFF60EDBCFE9FFF70EBB
:104FA000DBCFEAFF0C0EDBCFEFFF080EDBCF2BF0E1
:104FB000090EDBCF2CF00A0EDBCF2DF00B0EDBCF72
:104FC0002EF02BC01BF02CC01CF02DC01DF02EC0ED
:104FD0001EF0D9CFE1FFDACFE2FFE552E5CFDAFFED
:104FE000E7CFD9FF1200E96E000EDA20EA6E120058
:0E4FF000D950010FE66E000EDA20E66E1200B8
:024FFE009EB85B
:1050000002D0FDD7FCD71200D9CFE6FFE1CFD9FF00
:10501000FE0EDBCFE6FF8FEC23F0E5520D0EAD6EFA
:10502000EEDFE552E7CFD9FF1200D9CFE6FFE1CF9F
:10503000D9FF0101D950FD0F506FFF0EDA20516FDB
:10504000010EEA6A5025E96E5151EA22EF50E66EF0
:105050008FEC23F0E55250C1E9FF51C1EAFFEF5058
:10506000E66E8FEC23F0E5520D0EAD6EC8DFE55213
:10507000E7CFD9FF1200D9CFE6FFE1CFD9FFFD0E70
:10508000DBCF2BF0FE0EDBCF2CF02D6A2BC0E6FF22
:105090002CC0E6FF2DC0E6FF000EE66E010EE66EA8
:1050A00059EC2AF0F56E050EE15EF550000EE66E45
:1050B000010EE66E72EC2AF0E552E552F3CF54F1A0
:1050C000F4CF55F10101553504E254515008000E5A
:1050D000555503E2500E546F556B566B576B575135
:1050E0005519E8AE02D0553504D05451565D55518E
:1050F00057590EE2000E5625E96E010E5721EA6E51
:10510000EF50AD6E7CDF0101562B000E5723E7D721
:10511000E552E7CFD9FF1200D9CFE6FFE1CFD9FFA3
:105120000101526B1A0E525D11E2FD0EDBCFE9FF59
:10513000DB2AFE0EDBCFEAFF01E3DB2AEF50E66E4F
:105140008FEC23F0E5520101522BECD70D0EAD6E22
:1051500056DFE552E7CFD9FF12000101CE0E506FA6
:10516000010E516F0101CE510201796F7A6B7B51B3
:10517000791902E17C517A1918E00101EEA502D0FB
:10518000EE950FD07BC2E6FF8FEC23F0E55279C29B
:10519000E6FF8FEC23F0E5520D0EAD6E30DF01011E
:1051A000EE9579C27BF27AC27CF202017B2B000E73
:1051B0007C237C3504E27B51FF08000E7C5502E223
:1051C0007B6B7C6B1200150EE66E3C0EE66EDBEC24
:1051D0002EF0E552E552320EE66E91EC30F0E552DB
:1051E0001200D9CFE6FFE1CFD9FFFE0EDBCF53F19E
:1051F000E552E7CFD9FF1200D9CFE6FFE1CFD9FFC3
:10520000020EE126FE0EDB507F0BFE0BFD0BE66E61
:1052100053C1E6FF0DEC2FF0E552E5520A0EE66EA3
:10522000BDEC30F0E552D6EC30F007EC04F00009AC
:1052300001E0FBD726EC30F0D1EC30F0C4502D6EFD
:105240002DC02EF02D6AC35000012D102B6E2EC0E4
:105250002CF02BC0DEFF2CC0DDFFDECF2BF0DDCF2E
:105260002CF02BC0F3FF2CC0F4FF00D0D9CFE1FF0E
:08527000E552E7CFD9FF12005F
:08527800969614000A000000E4
:1052800000000A000500F8010000140014000A00E4
:10529000000000000A000C00F801000014000000EB
:1052A00000A0A01E000A000000000014000500F885
:1052B0000100001E001E000A000000000014000C87
:1052C00000F80100001E00000000AAAA28000A0041
:1052D0000000000032000500F8010000280028004E
:1052E0000A000000000032000C00F8010000280055
:1052F000000000A0A032000A0000000000320005FB
:1053000000F8010000320032000A00000000003204
:10531000000C00F8010000320000000096963E00EC
:105320000A000000000032000500F80100003E0005
:105330003E000A000000000032000C00F8010000EE
:105340003E000000007F8C0A000A000000000004FC
:10535000000500F80100003E000A000A00000000FD
:10536000000B000C00F80100004B000000008C8CCA
:105370000A000A000000000004000500F801000017
:1053800045000A000A00000000000B000C00F801B4
:105390000000520000000091910A000A0000000085
:1053A0000004000500F80100004C000A000A00009B
:1053B0000000000B000C00F8010000590000000084
:1053C0009B9B0A000A000000000004000500F80191
:1053D000000053000A000A00000000000B000C004F
:1053E000F801000060000000007F7F0A000A000052
:1053F00000000004000500F801000053000A000A44
:1054000000000000000B000C00F80100006000002C
:0254100000009A
:0E541200D9CFE6FFDACFE6FFFA0EE3CFD9FFDF
:10542000FB0EE3CFDAFFFC0EE3CFE9FFFD0EE3CF87
:10543000EAFFE9CFF3FFEACFF4FFF80EE35003E110
:10544000F90EE35008E0F80EE30602E2F90EE30677
:10545000DECFEEFFF2D7FF0EE3CFDAFFE552FF0E0D
:10546000E3CFD9FFE552120036EF2AF0FB0EE3CF6F
:10547000F6FFFC0EE3CFF7FFFD0EE3CFF8FFFE0EC5
:10548000E3CFE9FFFF0EE3CFEAFFE9CFF3FFEACF77
:10549000F4FFF90EE35003E1FA0EE35009E0F90ED0
:1054A000E30602E2FA0EE3060900F5CFEEFFF1D7BC
:1054B0001200FB0EE3CFF6FFFC0EE3CFF7FFFD0E6D
:1054C000E3CFF8FFFE0EE3CFE9FFFF0EE3CFEAFFE5
:1054D000E9CFF3FFEACFF4FF0900F5CFEFFFEE6667
:1054E000FBD71200FE0EE3CFE9FFFF0EE3CFEAFF8A
:1054F000F36AF46AEE5203E0F34AF42AFBD712008F
:10550000FF0EE3CFF8FFE552FF0EE3CFF7FFE552C2
:10551000FF0EE3CFF6FFE552E66AE66AE66A0900A7
:10552000F55209E0FD0EE32A05E1FE0EE32A02E151
:10553000FF0EE32AF4D7FD0EE3CF1CF0FE0EE3CFFF
:0A5540001DF0FF0EE3CF1EF0120075
:06554A00D9CFE6FFE1CF1E
:10555000D9FF030EE126A20EDF6EDE52DD6E820E53
:10556000F36E020EF3CFDBFF0101CFAD78D0010166
:10557000EEA174D0CE0EE66E010EE66E68EC18F069
:10558000E552E552C1C1E6FFC0C1E6FFBFC1E6FF7B
:10559000BEC1E6FFCCEC24F0E552E552E552E552FF
:1055A0000101FF51040A51E0070A42E0010A2BE021
:1055B000030A06E0010A01E049D0010EFF6F46D060
:1055C0008850100B01E0010E2B6EDF502B5C18E2AF
:1055D0008850200B01E0010E2C6E010EDB502C5C7C
:1055E0000FE2FE0EE66EE66A96EC13F0E552E55227
:1055F000FE0EE66EE66AF6EC13F0E552E55202D0D6
:10560000020EFF6F23D08250010B2B6E2C6AD890B4
:105610002C5004E6720E2B5C010E2C5806E2FE0E96
:10562000E66E55EC14F0E55202D0030EFF6F0ED07B
:10563000A70E2B6E020EDB502B5C04E20101FE0E66
:10564000B86F02D0040EFF6F01D000D0AE0EE66E30
:10565000010EE66E81EC18F0E552E55285D7D9CF00
:0A566000E1FFE552E7CFD9FF120089
:06566A00D9CFE6FFDACF04
:10567000E6FFE1CFD9FFE2CFDAFFE6522B682C68D4
:105680007F0E2D6E2E6AD950FA0FE96EFF0EDA20CA
:10569000EA6EEE502B16EE502C16EE502D16EE50F4
:1056A0002E166AD82BC0EEFF2CC0EEFF2DC0EEFFE9
:1056B0002EC0EEFFFD0EDB50800B02E0010E01D08C
:1056C000000EE66E59D8060EE926000EEA22E552D3
:1056D000E750EF6EFC0EDBCF2BF0FD0EDBCF2CF096
:1056E000D8902B362C36FC0E2BC0DBFFFD0E2CC0C9
:1056F000DBFFDB50E66E40D8040EE926000EEA22FE
:10570000E552E750EE6EED6AFD0EDB502B6E2C6A13
:10571000FF0E2B1818E12C5016E12ED8EECF2BF0EF
:10572000EECF2CF0EECF2DF0EFCF2EF02B502C1033
:105730002D102E1006E0210E0101FD6FFE6B800E74
:105740000BD0040E09D0FD0EDB5008E115D8EE6A2F
:10575000EE6AEE6AEE6A010EDF6E06D0020EDF6EB2
:105760000BD8EE52EE52EE8EDF50E552E552E5CF09
:10577000DAFFE7CFD9FF1200F80EDBCFE9FFF90E11
:06578000DBCFEAFF12007E
:0A57860006010307030004060103F7
:1057900000050004060100060104050000030601DF
:1057A0000400070203060100205B25642C25645DCC
:1057B0002000474D0020475245454E2000256420DB
:1057C0000055415254206275666665723A20005257
:1057D0004600534F203020310043522031382030D2
:1057E0000043522030203332004E46203600524DC6
:1057F000203100504D203100424D20310072730D98
:10580000000D006C65667420616E642072696768C3
:105810007473206D6F746F7220737065656473208C
:1058200025642025640D006C656674206A6F7572AE
:105830006E65793A202564206C6566745F737065C7
:1058400065643A202564207269676874206A6F7500
:10585000726E65793A2025642072696768742073D6
:10586000706565643A202564207475726E20666CDC
:1058700061673A2025640D000D0D0D0D0D43757205
:1058800072656E746C79206F6E2070617274202561
:10589000640D0057652061726520646F6E650D00B0
:1058A000D9CFE6FFDACFE6FFE1CFD9FFE2CFDAFFCB
:1058B0005BD82C3411E22B50FE08000E2C540CE265
:1058C00076D805E06CD8800EEE6EEE6847D067D8CB
:1058D000800EEE6E7F0E0ED047D8D8902C5004E686
:1058E000010E2B5C000E2C580BE261D805E057D856
:1058F000EE6A800EEE6E32D052D8EE6AEE6A2ED08C
:1059000047D8EECF2BF0EECF2CF0EECF2DF0EFCF2F
:105910002EF032D82BC0EEFF2CC0EEFF2DC0EEFFD4
:105920002EC0EEFF21D82B50010B05E025D8020E2A
:105930003AD8EF8E04D020D8020E35D8EF9E14D876
:10594000D8902C322B3218D8030E2DD82BC0EFFF55
:105950001AD804E011D8030E26D8EF8EE552E5CF11
:10596000DAFFE7CFD9FF120013D8040E1CD8EECF10
:105970002BF0EFCF2CF01200FA0EDBCFE9FFFB0E7D
:10598000DBCFEAFF120004D8060E0DD8EF5012004C
:10599000FC0EDBCFE9FFFD0EDBCFEAFF1200ECDFF0
:1059A000EE6AEE6A1200E926000EEA221200220ECA
:0A59B0000101FD6FFE6BC3EF2CF048
:0659BA00D9CFE6FFDACFB1
:1059C000E6FFE1CFD9FFE2CFDAFF060EE12402E3E2
:1059D000E168E652E16ED950050FE66E000EDA205E
:1059E000E66E000EE66EE66AD950FA0FE96EFF0E1B
:1059F000DA20EA6EEECFE6FFEECFE6FFEECFE6FF6F
:105A0000EFCFE6FFB8EC26F0F56E080EE15C02E29F
:105A1000E16AE552E16EF550010E1BC0DBFF020E9C
:105A20001CC0DBFF030E1DC0DBFF040E1EC0DBFF2E
:105A3000050EDB502AE0040EDB50800B26E02B6ABB
:105A40002C6A800E2D6E3F0E2E6ED950010FE96E1E
:105A5000000EDA20EA6EEECF1CF0EECF1DF0EECF96
:105A60001EF0EFCF1FF02BC021F02CC022F02DC074
:105A700023F02EC024F030EC1EF01FC0EDFF1EC03E
:105A8000EDFF1DC0EDFF1CC0EFFF010EDBCF2BF0C3
:105A9000020EDBCF2CF0030EDBCF2DF0040EDBCF9C
:105AA0002EF02BC01BF02CC01CF02DC01DF02EC002
:105AB0001EF0D9CFE1FFDACFE2FFE552E5CFDAFF02
:065AC000E7CFD9FF120040
:0A5AC6001E0EF66E080EF76E000EBD
:105AD000F86E02010900F5506E6F0900F5506F6F06
:105AE00003E16E6701D03DD00900F550696F0900F0
:105AF000F5506A6F0900F5506B6F09000900F55009
:105B0000E96E0900F550EA6E090009000900F55038
:105B10006C6F0900F5506D6F09000900F6CF70F247
:105B2000F7CF71F2F8CF72F269C2F6FF6AC2F7FFDF
:105B30006BC2F8FF02016C5302E16D5307E00900EC
:105B4000F550EE6E6C07F8E26D07F9D770C2F6FFFC
:105B500071C2F7FF72C2F8FF02016E07000E6F5BA1
:045B6000BFD7120099
:0C5B6400D9CFE6FFDACFE6FFE1CFD9FF92
:105B7000E2CFDAFFE652E652E652E652D950FB0F88
:105B80002B6EFF0EDA202C6E2BC0DEFFDD6EDECF1B
:105B9000E6FFDDCFE6FFFB0EDBCFE6FFFC0EDBCF43
:105BA000E6FFFD0EDBCFE6FFF1C7E6FFF2C7E6FF3B
:105BB00055EC0BF0F56E070EE15C02E2E16AE5528E
:105BC000E16EF550020EF3CFDBFF030EF4CFDBFFE7
:105BD000020EDBCF2BF0030EDBCF2CF02BC0F3FF3C
:105BE0002CC0F4FFD9CFE1FFDACFE2FFE552E5CFD9
:085BF000DAFFE7CFD9FF120034
:085BF800D9CFE6FFDACFE6FF8A
:105C0000E1CFD9FFE2CFDAFFFB0EDBCF2BF0FC0EAA
:105C1000DBCF2CF00001800E2C141AE1FB0EDBCF41
:105C2000E9FFFC0EDBCFEAFFEECFF3FFEDCFF4FF91
:105C3000EE2A000EEF22F3CFE9FFF4CFEAFFFD0ECC
:105C4000DBCFEFFFEF502C6AF36E2CC0F4FF10D0C7
:105C5000FB0EDB50FE0806E1FD0EDBCFE6FFA1ECFC
:105C600030F005D0FD0EDBCFE6FF03EC04F0E5528B
:0C5C7000E552E5CFDAFFE7CFD9FF1200C4
:045C7C001B50200297
:105C8000F3CF17F0F4CF18F02102F3501826000ECE
:105C9000F420196E1B502202F3501926000EF42036
:105CA0001A6E1B502302F3501A261C502002F35088
:105CB0001826F4501922000E1A221C502102F3500B
:105CC0001926F4501A221C502202F3501A261D5095
:105CD0002002F3501926F4501A221D502102F350CD
:0C5CE0001A261E502002F3501A26120053
:045CEC00D9CFE6FF27
:105CF000DACFE6FFE1CFD9FFE2CFDAFF3F0EC716DA
:105D0000C66AFD0EDB50C612FB0EDB50C712FC0E3E
:105D1000DB50030A09E0010A04E0020A06E1C78C2D
:105D200004D0C78CC68801D0C688FD0EDB50050A9A
:105D300003E0010A04E1928A9486C79E01D09496FA
:105D4000949A9488C68AE552E5CFDAFFE7CFD9FF67
:025D500012003F
:0E5D5200D9CFE6FFDACFE6FFE1CFD9FFE2CFEF
:105D6000DAFF6C6A6B6AFD0EDBB06C88DBA202D0D6
:105D70006C8C6B8CDBB46C8EDBA602D06B8801D094
:105D80006B8ADBA802D06C8401D06C94DBAC02D0AF
:105D9000A38A01D0A39ADBAE02D0A38801D0A39836
:105DA000FC0EDB506F6E6C8A6B8EE552E5CFDAFF2E
:065DB000E7CFD9FF12004D
:0A5DB600D9CFE6FFDACFE6FFE1CF18
:105DC000D9FFE2CFDAFFAC6AAB6AFD0EDBB0AC887C
:105DD000DBA202D0AC8CAB8CDBB4AC8EDBA602D0E9
:105DE000AB8801D0AB8ADBA802D0AC8401D0AC94E4
:105DF000DBAC02D09D8A01D09D9ADBAE02D09D889B
:105E000001D09D98FC0EDB50AF6EAC8AAB8EE55294
:0A5E1000E5CFDAFFE7CFD9FF12005B
:065E1A00D9CFE6FFDACF4C
:105E2000E6FFE1CFD9FFE2CFDAFFC26AC16AC06AFA
:105E3000FC0EDB407F0B3C0BC26EFD0EDB500F0BEC
:105E40002B6EFC0EDB38F00B300B2B10C16EFD0EF1
:105E5000DB380F0B070B2B6EFD0EDB50800B2B106E
:105E6000C06EFC0EDBAE03D09E9C9D8CF28CC2807B
:0C5E7000E552E5CFDAFFE7CFD9FF1200C2
:045E7C0000806E40F4
:105E800000409206B206D206B306D306B406D40684
:105E90000E030F03650A850A660A860AA60A870AA0
:105EA000804000408E0AAE0A8F0AAF0A900A9240E4
:105EB0000040AF0ECF0EB00ED00E0A122A124A12B8
:105EC0000B122B124B120B120C122C124C1200C084
:105ED0000101CFAD24D00101EEA120D0CE0EE66E9F
:105EE000010EE66E68EC18F0E552E552C5EC15F0CF
:105EF000C1C1E6FFC0C1E6FFBFC1E6FFBEC1E6FF0C
:105F0000CCEC24F0E552E552E552E552AE0EE66ED9
:105F1000010EE66E81EC18F0E552E552D9D7120079
:105F20000101CFAD22D00101EEA11ED0CE0EE66E52
:105F3000010EE66E68EC18F0E552E552C1C1E6FFCD
:105F4000C0C1E6FFBFC1E6FFBEC1E6FFCCEC24F056
:105F5000E552E552E552E552AE0EE66E010EE66EF2
:0C5F600081EC18F0E552E552DBD712008E
:045F6C000101CFADB3
:105F700022D00101EEA11ED0CE0EE66E010EE66E1D
:105F800068EC18F0E552E552C1C1E6FFC0C1E6FF7A
:105F9000BFC1E6FFBEC1E6FFCCEC24F0E552E552FE
:105FA000E552E552AE0EE66E010EE66E81EC18F09B
:085FB000E552E552DBD71200B7
:085FB8000101CFAD22D001016F
:105FC000EEA11ED0CE0EE66E010EE66E68EC18F065
:105FD000E552E552C1C1E6FFC0C1E6FFBFC1E6FF21
:105FE000BEC1E6FFCCEC24F0E552E552E552E552A5
:105FF000AE0EE66E010EE66E81EC18F0E552E5524B
:04600000DBD71200D8
:0C6004001A6A196A186A176A200EE76E03
:10601000D8901B361C361D361E36173618361936E4
:106020001A362050175C2150185822501958235006
:106030001A5809E32050175E2150185A2250195A55
:0C60400023501A5A1B2AE72EE4D7120046
:04604C00D9CFE6FFC3
:10605000DACFE6FFE1CFD9FFE2CFDAFFE652E65230
:10606000C350DF6E010EC4CFDBFFDECF2BF0DDCFE0
:106070002CF02BC0F3FF2CC0F4FFE552E552E552A3
:0A608000E5CFDAFFE7CFD9FF1200E9
:06608A001A6A196A100EEB
:10609000E76ED8901D361E3619361A362250195C16
:1060A00023501A5805E32250195E23501A5A1D2A0C
:0660B000E72EF0D71200FC
:0A60B600AEEC17F050EC11F0010100
:1060C000EE910101EEA107D0A5EC11F00101CFADD9
:0E60D00002D090EC25F041EC26F0F3D7120040
:0260DE00F36A63
:1060E000F46AFF0EE124E96EFF0EE220EA6EED662F
:1060F00007D02F0EEF6404D03A0EEF6001D0F32AE0
:0261000012008B
:0E61020016EE00F026EE00F0F86A269CA68E3F
:10611000A69C7DEC23F063EC2DF05BEC30F0F9D71E
:0261200012006B
:0E612200FF0EE350396E480E01D04C0EE76EB2
:10613000E72EFED7E76AE72EFED7392EF7D7000005
:0261400012004B
:0E614200FF0EE350ACBA04D0AF6AAB8EAC8A4D
:0E615000949CACA2FED7AD6EF36EF46A120002
:02615E001A6ABB
:10616000080EE76ED8901E361A3623501A5C02E3EA
:0A6170001A6E1E2AE72EF7D7120060
:06617A00FF0EE350E84EA9
:106180001200000000D000D000D0E82EFAD7120094
:10619000303132333435363738396162636465669D
:0161A00000FE
:0161A10000FD
:0661A200C2909D9C12005A
:0461A80000010203ED
:0461AC00C282120099
:0C61B000000000000000000000000000E3
:0461BC007F007F00E1
:1061C00000000000000000000000007F007F007F52
:0361D000007F004D
:0D61D300A2579D57975791578C578657003C
:0161E00000BE
:0261E100FEFFBF
:0461E30000000000B8
:0661E700000000000000B2
:020000040030CA
:0E000000FFFEFEFCFFFEFBFFFFFFFFFFFFFF0A
:00000001FF
